{
	"Sprint1.sol": {
		"BaBoBa": {
			"abi": [
				{
					"constant": true,
					"inputs": [
						{
							"internalType": "bytes32",
							"name": "hashOfCell",
							"type": "bytes32"
						},
						{
							"internalType": "uint256",
							"name": "power",
							"type": "uint256"
						}
					],
					"name": "VM_Test_FindNonce",
					"outputs": [
						{
							"internalType": "uint256",
							"name": "",
							"type": "uint256"
						},
						{
							"internalType": "bytes32",
							"name": "",
							"type": "bytes32"
						},
						{
							"internalType": "uint256",
							"name": "",
							"type": "uint256"
						},
						{
							"internalType": "uint256",
							"name": "",
							"type": "uint256"
						},
						{
							"internalType": "uint256",
							"name": "",
							"type": "uint256"
						}
					],
					"payable": false,
					"stateMutability": "view",
					"type": "function"
				}
			],
			"devdoc": {
				"methods": {}
			},
			"evm": {
				"assembly": "    /* \"Sprint1.sol\":1418:4593  contract BaBoBa{\r... */\n  mstore(0x40, 0x80)\n  callvalue\n    /* \"--CODEGEN--\":8:17   */\n  dup1\n    /* \"--CODEGEN--\":5:7   */\n  iszero\n  tag_1\n  jumpi\n    /* \"--CODEGEN--\":30:31   */\n  0x00\n    /* \"--CODEGEN--\":27:28   */\n  dup1\n    /* \"--CODEGEN--\":20:32   */\n  revert\n    /* \"--CODEGEN--\":5:7   */\ntag_1:\n    /* \"Sprint1.sol\":1418:4593  contract BaBoBa{\r... */\n  pop\n  dataSize(sub_0)\n  dup1\n  dataOffset(sub_0)\n  0x00\n  codecopy\n  0x00\n  return\nstop\n\nsub_0: assembly {\n        /* \"Sprint1.sol\":1418:4593  contract BaBoBa{\r... */\n      mstore(0x40, 0x80)\n      callvalue\n        /* \"--CODEGEN--\":8:17   */\n      dup1\n        /* \"--CODEGEN--\":5:7   */\n      iszero\n      tag_1\n      jumpi\n        /* \"--CODEGEN--\":30:31   */\n      0x00\n        /* \"--CODEGEN--\":27:28   */\n      dup1\n        /* \"--CODEGEN--\":20:32   */\n      revert\n        /* \"--CODEGEN--\":5:7   */\n    tag_1:\n        /* \"Sprint1.sol\":1418:4593  contract BaBoBa{\r... */\n      pop\n      jumpi(tag_2, lt(calldatasize, 0x04))\n      shr(0xe0, calldataload(0x00))\n      dup1\n      0x30a6e63d\n      eq\n      tag_3\n      jumpi\n    tag_2:\n      0x00\n      dup1\n      revert\n        /* \"Sprint1.sol\":3446:4576  function VM_Test_FindNonce(bytes32 hashOfCell,uint256 power) view public returns(uint256,bytes32,uint256,uint256,uint256){\r... */\n    tag_3:\n      tag_4\n      0x04\n      dup1\n      calldatasize\n      sub\n        /* \"--CODEGEN--\":13:15   */\n      0x40\n        /* \"--CODEGEN--\":8:11   */\n      dup2\n        /* \"--CODEGEN--\":5:16   */\n      lt\n        /* \"--CODEGEN--\":2:4   */\n      iszero\n      tag_5\n      jumpi\n        /* \"--CODEGEN--\":29:30   */\n      0x00\n        /* \"--CODEGEN--\":26:27   */\n      dup1\n        /* \"--CODEGEN--\":19:31   */\n      revert\n        /* \"--CODEGEN--\":2:4   */\n    tag_5:\n        /* \"Sprint1.sol\":3446:4576  function VM_Test_FindNonce(bytes32 hashOfCell,uint256 power) view public returns(uint256,bytes32,uint256,uint256,uint256){\r... */\n      dup2\n      add\n      swap1\n      dup1\n      dup1\n      calldataload\n      swap1\n      0x20\n      add\n      swap1\n      swap3\n      swap2\n      swap1\n      dup1\n      calldataload\n      swap1\n      0x20\n      add\n      swap1\n      swap3\n      swap2\n      swap1\n      pop\n      pop\n      pop\n      tag_6\n      jump\t// in\n    tag_4:\n      mload(0x40)\n      dup1\n      dup7\n      dup2\n      mstore\n      0x20\n      add\n      dup6\n      dup2\n      mstore\n      0x20\n      add\n      dup5\n      dup2\n      mstore\n      0x20\n      add\n      dup4\n      dup2\n      mstore\n      0x20\n      add\n      dup3\n      dup2\n      mstore\n      0x20\n      add\n      swap6\n      pop\n      pop\n      pop\n      pop\n      pop\n      pop\n      mload(0x40)\n      dup1\n      swap2\n      sub\n      swap1\n      return\n    tag_6:\n        /* \"Sprint1.sol\":3527:3534  uint256 */\n      0x00\n        /* \"Sprint1.sol\":3535:3542  bytes32 */\n      dup1\n        /* \"Sprint1.sol\":3543:3550  uint256 */\n      0x00\n        /* \"Sprint1.sol\":3551:3558  uint256 */\n      dup1\n        /* \"Sprint1.sol\":3559:3566  uint256 */\n      0x00\n        /* \"Sprint1.sol\":3582:3595  int256 teamNo */\n      dup1\n        /* \"Sprint1.sol\":3598:3599  5 */\n      0x05\n        /* \"Sprint1.sol\":3582:3599  int256 teamNo = 5 */\n      swap1\n      pop\n        /* \"Sprint1.sol\":3612:3634  bytes32 bytes32_TeamNo */\n      0x00\n        /* \"Sprint1.sol\":3645:3651  teamNo */\n      dup2\n        /* \"Sprint1.sol\":3637:3652  bytes32(teamNo) */\n      0x00\n      shl\n        /* \"Sprint1.sol\":3612:3652  bytes32 bytes32_TeamNo = bytes32(teamNo) */\n      swap1\n      pop\n        /* \"Sprint1.sol\":3667:3684  bytes32  cellHash */\n      0x00\n        /* \"Sprint1.sol\":3687:3697  hashOfCell */\n      dup10\n        /* \"Sprint1.sol\":3667:3697  bytes32  cellHash = hashOfCell */\n      swap1\n      pop\n        /* \"Sprint1.sol\":3710:3722  uint256  pow */\n      0x00\n        /* \"Sprint1.sol\":3725:3730  power */\n      dup10\n        /* \"Sprint1.sol\":3710:3730  uint256  pow = power */\n      swap1\n      pop\n        /* \"Sprint1.sol\":3743:3754  uint  nonce */\n      0x00\n        /* \"Sprint1.sol\":3757:3758  1 */\n      0x01\n        /* \"Sprint1.sol\":3743:3758  uint  nonce = 1 */\n      swap1\n      pop\n        /* \"Sprint1.sol\":3772:3788  bytes32  newHash */\n      0x00\n        /* \"Sprint1.sol\":3791:3846  sha256(abi.encodePacked(cellHash,bytes32_TeamNo,nonce)) */\n      0x02\n        /* \"Sprint1.sol\":3815:3823  cellHash */\n      dup5\n        /* \"Sprint1.sol\":3824:3838  bytes32_TeamNo */\n      dup7\n        /* \"Sprint1.sol\":3839:3844  nonce */\n      dup5\n        /* \"Sprint1.sol\":3798:3845  abi.encodePacked(cellHash,bytes32_TeamNo,nonce) */\n      add(0x20, mload(0x40))\n      dup1\n      dup5\n      dup2\n      mstore\n      0x20\n      add\n      dup4\n      dup2\n      mstore\n      0x20\n      add\n      dup3\n      dup2\n      mstore\n      0x20\n      add\n      swap4\n      pop\n      pop\n      pop\n      pop\n      mload(0x40)\n        /* \"--CODEGEN--\":49:53   */\n      0x20\n        /* \"--CODEGEN--\":39:46   */\n      dup2\n        /* \"--CODEGEN--\":30:37   */\n      dup4\n        /* \"--CODEGEN--\":26:47   */\n      sub\n        /* \"--CODEGEN--\":22:54   */\n      sub\n        /* \"--CODEGEN--\":13:20   */\n      dup2\n        /* \"--CODEGEN--\":6:55   */\n      mstore\n        /* \"Sprint1.sol\":3798:3845  abi.encodePacked(cellHash,bytes32_TeamNo,nonce) */\n      swap1\n      0x40\n      mstore\n        /* \"Sprint1.sol\":3791:3846  sha256(abi.encodePacked(cellHash,bytes32_TeamNo,nonce)) */\n      mload(0x40)\n      dup1\n      dup3\n      dup1\n      mload\n      swap1\n      0x20\n      add\n      swap1\n      dup1\n      dup4\n      dup4\n        /* \"--CODEGEN--\":36:189   */\n    tag_8:\n        /* \"--CODEGEN--\":66:68   */\n      0x20\n        /* \"--CODEGEN--\":61:64   */\n      dup4\n        /* \"--CODEGEN--\":58:69   */\n      lt\n        /* \"--CODEGEN--\":36:189   */\n      tag_10\n      jumpi\n        /* \"--CODEGEN--\":182:185   */\n      dup1\n        /* \"--CODEGEN--\":176:186   */\n      mload\n        /* \"--CODEGEN--\":171:174   */\n      dup3\n        /* \"--CODEGEN--\":164:187   */\n      mstore\n        /* \"--CODEGEN--\":98:100   */\n      0x20\n        /* \"--CODEGEN--\":93:96   */\n      dup3\n        /* \"--CODEGEN--\":89:101   */\n      add\n        /* \"--CODEGEN--\":82:101   */\n      swap2\n      pop\n        /* \"--CODEGEN--\":123:125   */\n      0x20\n        /* \"--CODEGEN--\":118:121   */\n      dup2\n        /* \"--CODEGEN--\":114:126   */\n      add\n        /* \"--CODEGEN--\":107:126   */\n      swap1\n      pop\n        /* \"--CODEGEN--\":148:150   */\n      0x20\n        /* \"--CODEGEN--\":143:146   */\n      dup4\n        /* \"--CODEGEN--\":139:151   */\n      sub\n        /* \"--CODEGEN--\":132:151   */\n      swap3\n      pop\n        /* \"--CODEGEN--\":36:189   */\n      jump(tag_8)\n    tag_10:\n        /* \"--CODEGEN--\":274:275   */\n      0x01\n        /* \"--CODEGEN--\":267:270   */\n      dup4\n        /* \"--CODEGEN--\":263:265   */\n      0x20\n        /* \"--CODEGEN--\":259:271   */\n      sub\n        /* \"--CODEGEN--\":254:257   */\n      0x0100\n        /* \"--CODEGEN--\":250:272   */\n      exp\n        /* \"--CODEGEN--\":246:276   */\n      sub\n        /* \"--CODEGEN--\":315:319   */\n      dup1\n        /* \"--CODEGEN--\":311:320   */\n      not\n        /* \"--CODEGEN--\":305:308   */\n      dup3\n        /* \"--CODEGEN--\":299:309   */\n      mload\n        /* \"--CODEGEN--\":295:321   */\n      and\n        /* \"--CODEGEN--\":356:360   */\n      dup2\n        /* \"--CODEGEN--\":350:353   */\n      dup5\n        /* \"--CODEGEN--\":344:354   */\n      mload\n        /* \"--CODEGEN--\":340:361   */\n      and\n        /* \"--CODEGEN--\":389:396   */\n      dup1\n        /* \"--CODEGEN--\":380:387   */\n      dup3\n        /* \"--CODEGEN--\":377:397   */\n      or\n        /* \"--CODEGEN--\":372:375   */\n      dup6\n        /* \"--CODEGEN--\":365:398   */\n      mstore\n        /* \"--CODEGEN--\":3:402   */\n      pop\n      pop\n      pop\n        /* \"Sprint1.sol\":3791:3846  sha256(abi.encodePacked(cellHash,bytes32_TeamNo,nonce)) */\n      pop\n      pop\n      pop\n      swap1\n      pop\n      add\n      swap2\n      pop\n      pop\n      0x20\n      mload(0x40)\n      dup1\n      dup4\n      sub\n      dup2\n      dup6\n      gas\n      staticcall\n      iszero\n        /* \"--CODEGEN--\":8:17   */\n      dup1\n        /* \"--CODEGEN--\":5:7   */\n      iszero\n      tag_11\n      jumpi\n        /* \"--CODEGEN--\":45:61   */\n      returndatasize\n        /* \"--CODEGEN--\":42:43   */\n      0x00\n        /* \"--CODEGEN--\":39:40   */\n      dup1\n        /* \"--CODEGEN--\":24:62   */\n      returndatacopy\n        /* \"--CODEGEN--\":77:93   */\n      returndatasize\n        /* \"--CODEGEN--\":74:75   */\n      0x00\n        /* \"--CODEGEN--\":67:94   */\n      revert\n        /* \"--CODEGEN--\":5:7   */\n    tag_11:\n        /* \"Sprint1.sol\":3791:3846  sha256(abi.encodePacked(cellHash,bytes32_TeamNo,nonce)) */\n      pop\n      pop\n      pop\n      mload(0x40)\n      returndatasize\n        /* \"--CODEGEN--\":13:15   */\n      0x20\n        /* \"--CODEGEN--\":8:11   */\n      dup2\n        /* \"--CODEGEN--\":5:16   */\n      lt\n        /* \"--CODEGEN--\":2:4   */\n      iszero\n      tag_12\n      jumpi\n        /* \"--CODEGEN--\":29:30   */\n      0x00\n        /* \"--CODEGEN--\":26:27   */\n      dup1\n        /* \"--CODEGEN--\":19:31   */\n      revert\n        /* \"--CODEGEN--\":2:4   */\n    tag_12:\n        /* \"Sprint1.sol\":3791:3846  sha256(abi.encodePacked(cellHash,bytes32_TeamNo,nonce)) */\n      dup2\n      add\n      swap1\n      dup1\n      dup1\n      mload\n      swap1\n      0x20\n      add\n      swap1\n      swap3\n      swap2\n      swap1\n      pop\n      pop\n      pop\n        /* \"Sprint1.sol\":3772:3846  bytes32  newHash = sha256(abi.encodePacked(cellHash,bytes32_TeamNo,nonce)) */\n      swap1\n      pop\n        /* \"Sprint1.sol\":3861:3881  uint  multiplication */\n      0x00\n        /* \"Sprint1.sol\":3902:3905  pow */\n      dup4\n        /* \"Sprint1.sol\":3899:3900  2 */\n      0x02\n        /* \"Sprint1.sol\":3899:3905  2**pow */\n      exp\n        /* \"Sprint1.sol\":3889:3896  newHash */\n      dup3\n        /* \"Sprint1.sol\":3884:3897  uint(newHash) */\n      0x00\n      shr\n        /* \"Sprint1.sol\":3884:3906  uint(newHash)*(2**pow) */\n      mul\n        /* \"Sprint1.sol\":3861:3906  uint  multiplication = uint(newHash)*(2**pow) */\n      swap1\n      pop\n        /* \"Sprint1.sol\":3919:3937  bytes32  finalHash */\n      0x00\n        /* \"Sprint1.sol\":3948:3962  multiplication */\n      dup2\n        /* \"Sprint1.sol\":3940:3963  bytes32(multiplication) */\n      0x00\n      shl\n        /* \"Sprint1.sol\":3919:3963  bytes32  finalHash = bytes32(multiplication) */\n      swap1\n      pop\n        /* \"Sprint1.sol\":3978:3998  uint256 int_cellHash */\n      0x00\n        /* \"Sprint1.sol\":4009:4017  cellHash */\n      dup7\n        /* \"Sprint1.sol\":4001:4018  uint256(cellHash) */\n      0x00\n      shr\n        /* \"Sprint1.sol\":3978:4018  uint256 int_cellHash = uint256(cellHash) */\n      swap1\n      pop\n        /* \"Sprint1.sol\":4031:4050  uint256 int_newHash */\n      0x00\n        /* \"Sprint1.sol\":4061:4068  newHash */\n      dup5\n        /* \"Sprint1.sol\":4053:4069  uint256(newHash) */\n      0x00\n      shr\n        /* \"Sprint1.sol\":4031:4069  uint256 int_newHash = uint256(newHash) */\n      swap1\n      pop\n        /* \"Sprint1.sol\":4102:4113  int_newHash */\n      dup1\n        /* \"Sprint1.sol\":4087:4099  int_cellHash */\n      dup3\n        /* \"Sprint1.sol\":4087:4113  int_cellHash > int_newHash */\n      gt\n        /* \"Sprint1.sol\":4084:4476  if(int_cellHash > int_newHash){\r... */\n      iszero\n      tag_13\n      jumpi\n        /* \"Sprint1.sol\":4132:4312  while(int_cellHash > int_newHash){\r... */\n    tag_14:\n        /* \"Sprint1.sol\":4153:4164  int_newHash */\n      dup1\n        /* \"Sprint1.sol\":4138:4150  int_cellHash */\n      dup3\n        /* \"Sprint1.sol\":4138:4164  int_cellHash > int_newHash */\n      gt\n        /* \"Sprint1.sol\":4132:4312  while(int_cellHash > int_newHash){\r... */\n      iszero\n      tag_15\n      jumpi\n        /* \"Sprint1.sol\":4205:4260  sha256(abi.encodePacked(cellHash,bytes32_TeamNo,nonce)) */\n      0x02\n        /* \"Sprint1.sol\":4229:4237  cellHash */\n      dup9\n        /* \"Sprint1.sol\":4238:4252  bytes32_TeamNo */\n      dup11\n        /* \"Sprint1.sol\":4253:4258  nonce */\n      dup9\n        /* \"Sprint1.sol\":4212:4259  abi.encodePacked(cellHash,bytes32_TeamNo,nonce) */\n      add(0x20, mload(0x40))\n      dup1\n      dup5\n      dup2\n      mstore\n      0x20\n      add\n      dup4\n      dup2\n      mstore\n      0x20\n      add\n      dup3\n      dup2\n      mstore\n      0x20\n      add\n      swap4\n      pop\n      pop\n      pop\n      pop\n      mload(0x40)\n        /* \"--CODEGEN--\":49:53   */\n      0x20\n        /* \"--CODEGEN--\":39:46   */\n      dup2\n        /* \"--CODEGEN--\":30:37   */\n      dup4\n        /* \"--CODEGEN--\":26:47   */\n      sub\n        /* \"--CODEGEN--\":22:54   */\n      sub\n        /* \"--CODEGEN--\":13:20   */\n      dup2\n        /* \"--CODEGEN--\":6:55   */\n      mstore\n        /* \"Sprint1.sol\":4212:4259  abi.encodePacked(cellHash,bytes32_TeamNo,nonce) */\n      swap1\n      0x40\n      mstore\n        /* \"Sprint1.sol\":4205:4260  sha256(abi.encodePacked(cellHash,bytes32_TeamNo,nonce)) */\n      mload(0x40)\n      dup1\n      dup3\n      dup1\n      mload\n      swap1\n      0x20\n      add\n      swap1\n      dup1\n      dup4\n      dup4\n        /* \"--CODEGEN--\":36:189   */\n    tag_16:\n        /* \"--CODEGEN--\":66:68   */\n      0x20\n        /* \"--CODEGEN--\":61:64   */\n      dup4\n        /* \"--CODEGEN--\":58:69   */\n      lt\n        /* \"--CODEGEN--\":36:189   */\n      tag_18\n      jumpi\n        /* \"--CODEGEN--\":182:185   */\n      dup1\n        /* \"--CODEGEN--\":176:186   */\n      mload\n        /* \"--CODEGEN--\":171:174   */\n      dup3\n        /* \"--CODEGEN--\":164:187   */\n      mstore\n        /* \"--CODEGEN--\":98:100   */\n      0x20\n        /* \"--CODEGEN--\":93:96   */\n      dup3\n        /* \"--CODEGEN--\":89:101   */\n      add\n        /* \"--CODEGEN--\":82:101   */\n      swap2\n      pop\n        /* \"--CODEGEN--\":123:125   */\n      0x20\n        /* \"--CODEGEN--\":118:121   */\n      dup2\n        /* \"--CODEGEN--\":114:126   */\n      add\n        /* \"--CODEGEN--\":107:126   */\n      swap1\n      pop\n        /* \"--CODEGEN--\":148:150   */\n      0x20\n        /* \"--CODEGEN--\":143:146   */\n      dup4\n        /* \"--CODEGEN--\":139:151   */\n      sub\n        /* \"--CODEGEN--\":132:151   */\n      swap3\n      pop\n        /* \"--CODEGEN--\":36:189   */\n      jump(tag_16)\n    tag_18:\n        /* \"--CODEGEN--\":274:275   */\n      0x01\n        /* \"--CODEGEN--\":267:270   */\n      dup4\n        /* \"--CODEGEN--\":263:265   */\n      0x20\n        /* \"--CODEGEN--\":259:271   */\n      sub\n        /* \"--CODEGEN--\":254:257   */\n      0x0100\n        /* \"--CODEGEN--\":250:272   */\n      exp\n        /* \"--CODEGEN--\":246:276   */\n      sub\n        /* \"--CODEGEN--\":315:319   */\n      dup1\n        /* \"--CODEGEN--\":311:320   */\n      not\n        /* \"--CODEGEN--\":305:308   */\n      dup3\n        /* \"--CODEGEN--\":299:309   */\n      mload\n        /* \"--CODEGEN--\":295:321   */\n      and\n        /* \"--CODEGEN--\":356:360   */\n      dup2\n        /* \"--CODEGEN--\":350:353   */\n      dup5\n        /* \"--CODEGEN--\":344:354   */\n      mload\n        /* \"--CODEGEN--\":340:361   */\n      and\n        /* \"--CODEGEN--\":389:396   */\n      dup1\n        /* \"--CODEGEN--\":380:387   */\n      dup3\n        /* \"--CODEGEN--\":377:397   */\n      or\n        /* \"--CODEGEN--\":372:375   */\n      dup6\n        /* \"--CODEGEN--\":365:398   */\n      mstore\n        /* \"--CODEGEN--\":3:402   */\n      pop\n      pop\n      pop\n        /* \"Sprint1.sol\":4205:4260  sha256(abi.encodePacked(cellHash,bytes32_TeamNo,nonce)) */\n      pop\n      pop\n      pop\n      swap1\n      pop\n      add\n      swap2\n      pop\n      pop\n      0x20\n      mload(0x40)\n      dup1\n      dup4\n      sub\n      dup2\n      dup6\n      gas\n      staticcall\n      iszero\n        /* \"--CODEGEN--\":8:17   */\n      dup1\n        /* \"--CODEGEN--\":5:7   */\n      iszero\n      tag_19\n      jumpi\n        /* \"--CODEGEN--\":45:61   */\n      returndatasize\n        /* \"--CODEGEN--\":42:43   */\n      0x00\n        /* \"--CODEGEN--\":39:40   */\n      dup1\n        /* \"--CODEGEN--\":24:62   */\n      returndatacopy\n        /* \"--CODEGEN--\":77:93   */\n      returndatasize\n        /* \"--CODEGEN--\":74:75   */\n      0x00\n        /* \"--CODEGEN--\":67:94   */\n      revert\n        /* \"--CODEGEN--\":5:7   */\n    tag_19:\n        /* \"Sprint1.sol\":4205:4260  sha256(abi.encodePacked(cellHash,bytes32_TeamNo,nonce)) */\n      pop\n      pop\n      pop\n      mload(0x40)\n      returndatasize\n        /* \"--CODEGEN--\":13:15   */\n      0x20\n        /* \"--CODEGEN--\":8:11   */\n      dup2\n        /* \"--CODEGEN--\":5:16   */\n      lt\n        /* \"--CODEGEN--\":2:4   */\n      iszero\n      tag_20\n      jumpi\n        /* \"--CODEGEN--\":29:30   */\n      0x00\n        /* \"--CODEGEN--\":26:27   */\n      dup1\n        /* \"--CODEGEN--\":19:31   */\n      revert\n        /* \"--CODEGEN--\":2:4   */\n    tag_20:\n        /* \"Sprint1.sol\":4205:4260  sha256(abi.encodePacked(cellHash,bytes32_TeamNo,nonce)) */\n      dup2\n      add\n      swap1\n      dup1\n      dup1\n      mload\n      swap1\n      0x20\n      add\n      swap1\n      swap3\n      swap2\n      swap1\n      pop\n      pop\n      pop\n        /* \"Sprint1.sol\":4197:4261  uint256(sha256(abi.encodePacked(cellHash,bytes32_TeamNo,nonce))) */\n      0x00\n      shr\n        /* \"Sprint1.sol\":4183:4261  int_newHash = uint256(sha256(abi.encodePacked(cellHash,bytes32_TeamNo,nonce))) */\n      swap1\n      pop\n        /* \"Sprint1.sol\":4281:4288  nonce++ */\n      dup6\n      dup1\n      0x01\n      add\n      swap7\n      pop\n      pop\n        /* \"Sprint1.sol\":4132:4312  while(int_cellHash > int_newHash){\r... */\n      jump(tag_14)\n    tag_15:\n        /* \"Sprint1.sol\":4450:4457  nonce-- */\n      dup6\n      dup1\n      0x01\n      swap1\n      sub\n      swap7\n      pop\n      pop\n        /* \"Sprint1.sol\":4084:4476  if(int_cellHash > int_newHash){\r... */\n    tag_13:\n        /* \"Sprint1.sol\":4513:4518  nonce */\n      dup6\n        /* \"Sprint1.sol\":4527:4532  nonce */\n      dup7\n        /* \"Sprint1.sol\":4519:4533  bytes32(nonce) */\n      0x00\n      shl\n        /* \"Sprint1.sol\":4534:4546  int_cellHash */\n      dup4\n        /* \"Sprint1.sol\":4547:4558  int_newHash */\n      dup4\n        /* \"Sprint1.sol\":4559:4562  pow */\n      dup11\n        /* \"Sprint1.sol\":4505:4563  return (nonce,bytes32(nonce),int_cellHash,int_newHash,pow) */\n      swap15\n      pop\n      swap15\n      pop\n      swap15\n      pop\n      swap15\n      pop\n      swap15\n      pop\n      pop\n      pop\n      pop\n      pop\n      pop\n      pop\n      pop\n      pop\n      pop\n      pop\n        /* \"Sprint1.sol\":3446:4576  function VM_Test_FindNonce(bytes32 hashOfCell,uint256 power) view public returns(uint256,bytes32,uint256,uint256,uint256){\r... */\n      swap3\n      swap6\n      pop\n      swap3\n      swap6\n      swap1\n      swap4\n      pop\n      jump\t// out\n\n    auxdata: 0xa265627a7a7231582015cc77e3a1844ba01c6ef6b2965cf19fe4184a5ba45abb2e5c36cdebfb5a331264736f6c63430005110032\n}\n",
				"bytecode": {
					"linkReferences": {},
					"object": "608060405234801561001057600080fd5b50610308806100206000396000f3fe608060405234801561001057600080fd5b506004361061002b5760003560e01c806330a6e63d14610030575b600080fd5b6100666004803603604081101561004657600080fd5b810190808035906020019092919080359060200190929190505050610098565b604051808681526020018581526020018481526020018381526020018281526020019550505050505060405180910390f35b6000806000806000806005905060008160001b905060008990506000899050600060019050600060028486846040516020018084815260200183815260200182815260200193505050506040516020818303038152906040526040518082805190602001908083835b602083106101245780518252602082019150602081019050602083039250610101565b6001836020036101000a038019825116818451168082178552505050505050905001915050602060405180830381855afa158015610166573d6000803e3d6000fd5b5050506040513d602081101561017b57600080fd5b8101908080519060200190929190505050905060008360020a8260001c02905060008160001b905060008660001c905060008460001c9050808211156102ad575b808211156102a3576002888a886040516020018084815260200183815260200182815260200193505050506040516020818303038152906040526040518082805190602001908083835b602083106102295780518252602082019150602081019050602083039250610206565b6001836020036101000a038019825116818451168082178552505050505050905001915050602060405180830381855afa15801561026b573d6000803e3d6000fd5b5050506040513d602081101561028057600080fd5b810190808051906020019092919050505060001c905085806001019650506101bc565b8580600190039650505b858660001b83838a9e509e509e509e509e5050505050505050505050929550929590935056fea265627a7a7231582015cc77e3a1844ba01c6ef6b2965cf19fe4184a5ba45abb2e5c36cdebfb5a331264736f6c63430005110032",
					"opcodes": "PUSH1 0x80 PUSH1 0x40 MSTORE CALLVALUE DUP1 ISZERO PUSH2 0x10 JUMPI PUSH1 0x0 DUP1 REVERT JUMPDEST POP PUSH2 0x308 DUP1 PUSH2 0x20 PUSH1 0x0 CODECOPY PUSH1 0x0 RETURN INVALID PUSH1 0x80 PUSH1 0x40 MSTORE CALLVALUE DUP1 ISZERO PUSH2 0x10 JUMPI PUSH1 0x0 DUP1 REVERT JUMPDEST POP PUSH1 0x4 CALLDATASIZE LT PUSH2 0x2B JUMPI PUSH1 0x0 CALLDATALOAD PUSH1 0xE0 SHR DUP1 PUSH4 0x30A6E63D EQ PUSH2 0x30 JUMPI JUMPDEST PUSH1 0x0 DUP1 REVERT JUMPDEST PUSH2 0x66 PUSH1 0x4 DUP1 CALLDATASIZE SUB PUSH1 0x40 DUP2 LT ISZERO PUSH2 0x46 JUMPI PUSH1 0x0 DUP1 REVERT JUMPDEST DUP2 ADD SWAP1 DUP1 DUP1 CALLDATALOAD SWAP1 PUSH1 0x20 ADD SWAP1 SWAP3 SWAP2 SWAP1 DUP1 CALLDATALOAD SWAP1 PUSH1 0x20 ADD SWAP1 SWAP3 SWAP2 SWAP1 POP POP POP PUSH2 0x98 JUMP JUMPDEST PUSH1 0x40 MLOAD DUP1 DUP7 DUP2 MSTORE PUSH1 0x20 ADD DUP6 DUP2 MSTORE PUSH1 0x20 ADD DUP5 DUP2 MSTORE PUSH1 0x20 ADD DUP4 DUP2 MSTORE PUSH1 0x20 ADD DUP3 DUP2 MSTORE PUSH1 0x20 ADD SWAP6 POP POP POP POP POP POP PUSH1 0x40 MLOAD DUP1 SWAP2 SUB SWAP1 RETURN JUMPDEST PUSH1 0x0 DUP1 PUSH1 0x0 DUP1 PUSH1 0x0 DUP1 PUSH1 0x5 SWAP1 POP PUSH1 0x0 DUP2 PUSH1 0x0 SHL SWAP1 POP PUSH1 0x0 DUP10 SWAP1 POP PUSH1 0x0 DUP10 SWAP1 POP PUSH1 0x0 PUSH1 0x1 SWAP1 POP PUSH1 0x0 PUSH1 0x2 DUP5 DUP7 DUP5 PUSH1 0x40 MLOAD PUSH1 0x20 ADD DUP1 DUP5 DUP2 MSTORE PUSH1 0x20 ADD DUP4 DUP2 MSTORE PUSH1 0x20 ADD DUP3 DUP2 MSTORE PUSH1 0x20 ADD SWAP4 POP POP POP POP PUSH1 0x40 MLOAD PUSH1 0x20 DUP2 DUP4 SUB SUB DUP2 MSTORE SWAP1 PUSH1 0x40 MSTORE PUSH1 0x40 MLOAD DUP1 DUP3 DUP1 MLOAD SWAP1 PUSH1 0x20 ADD SWAP1 DUP1 DUP4 DUP4 JUMPDEST PUSH1 0x20 DUP4 LT PUSH2 0x124 JUMPI DUP1 MLOAD DUP3 MSTORE PUSH1 0x20 DUP3 ADD SWAP2 POP PUSH1 0x20 DUP2 ADD SWAP1 POP PUSH1 0x20 DUP4 SUB SWAP3 POP PUSH2 0x101 JUMP JUMPDEST PUSH1 0x1 DUP4 PUSH1 0x20 SUB PUSH2 0x100 EXP SUB DUP1 NOT DUP3 MLOAD AND DUP2 DUP5 MLOAD AND DUP1 DUP3 OR DUP6 MSTORE POP POP POP POP POP POP SWAP1 POP ADD SWAP2 POP POP PUSH1 0x20 PUSH1 0x40 MLOAD DUP1 DUP4 SUB DUP2 DUP6 GAS STATICCALL ISZERO DUP1 ISZERO PUSH2 0x166 JUMPI RETURNDATASIZE PUSH1 0x0 DUP1 RETURNDATACOPY RETURNDATASIZE PUSH1 0x0 REVERT JUMPDEST POP POP POP PUSH1 0x40 MLOAD RETURNDATASIZE PUSH1 0x20 DUP2 LT ISZERO PUSH2 0x17B JUMPI PUSH1 0x0 DUP1 REVERT JUMPDEST DUP2 ADD SWAP1 DUP1 DUP1 MLOAD SWAP1 PUSH1 0x20 ADD SWAP1 SWAP3 SWAP2 SWAP1 POP POP POP SWAP1 POP PUSH1 0x0 DUP4 PUSH1 0x2 EXP DUP3 PUSH1 0x0 SHR MUL SWAP1 POP PUSH1 0x0 DUP2 PUSH1 0x0 SHL SWAP1 POP PUSH1 0x0 DUP7 PUSH1 0x0 SHR SWAP1 POP PUSH1 0x0 DUP5 PUSH1 0x0 SHR SWAP1 POP DUP1 DUP3 GT ISZERO PUSH2 0x2AD JUMPI JUMPDEST DUP1 DUP3 GT ISZERO PUSH2 0x2A3 JUMPI PUSH1 0x2 DUP9 DUP11 DUP9 PUSH1 0x40 MLOAD PUSH1 0x20 ADD DUP1 DUP5 DUP2 MSTORE PUSH1 0x20 ADD DUP4 DUP2 MSTORE PUSH1 0x20 ADD DUP3 DUP2 MSTORE PUSH1 0x20 ADD SWAP4 POP POP POP POP PUSH1 0x40 MLOAD PUSH1 0x20 DUP2 DUP4 SUB SUB DUP2 MSTORE SWAP1 PUSH1 0x40 MSTORE PUSH1 0x40 MLOAD DUP1 DUP3 DUP1 MLOAD SWAP1 PUSH1 0x20 ADD SWAP1 DUP1 DUP4 DUP4 JUMPDEST PUSH1 0x20 DUP4 LT PUSH2 0x229 JUMPI DUP1 MLOAD DUP3 MSTORE PUSH1 0x20 DUP3 ADD SWAP2 POP PUSH1 0x20 DUP2 ADD SWAP1 POP PUSH1 0x20 DUP4 SUB SWAP3 POP PUSH2 0x206 JUMP JUMPDEST PUSH1 0x1 DUP4 PUSH1 0x20 SUB PUSH2 0x100 EXP SUB DUP1 NOT DUP3 MLOAD AND DUP2 DUP5 MLOAD AND DUP1 DUP3 OR DUP6 MSTORE POP POP POP POP POP POP SWAP1 POP ADD SWAP2 POP POP PUSH1 0x20 PUSH1 0x40 MLOAD DUP1 DUP4 SUB DUP2 DUP6 GAS STATICCALL ISZERO DUP1 ISZERO PUSH2 0x26B JUMPI RETURNDATASIZE PUSH1 0x0 DUP1 RETURNDATACOPY RETURNDATASIZE PUSH1 0x0 REVERT JUMPDEST POP POP POP PUSH1 0x40 MLOAD RETURNDATASIZE PUSH1 0x20 DUP2 LT ISZERO PUSH2 0x280 JUMPI PUSH1 0x0 DUP1 REVERT JUMPDEST DUP2 ADD SWAP1 DUP1 DUP1 MLOAD SWAP1 PUSH1 0x20 ADD SWAP1 SWAP3 SWAP2 SWAP1 POP POP POP PUSH1 0x0 SHR SWAP1 POP DUP6 DUP1 PUSH1 0x1 ADD SWAP7 POP POP PUSH2 0x1BC JUMP JUMPDEST DUP6 DUP1 PUSH1 0x1 SWAP1 SUB SWAP7 POP POP JUMPDEST DUP6 DUP7 PUSH1 0x0 SHL DUP4 DUP4 DUP11 SWAP15 POP SWAP15 POP SWAP15 POP SWAP15 POP SWAP15 POP POP POP POP POP POP POP POP POP POP POP SWAP3 SWAP6 POP SWAP3 SWAP6 SWAP1 SWAP4 POP JUMP INVALID LOG2 PUSH6 0x627A7A723158 KECCAK256 ISZERO 0xCC PUSH24 0xE3A1844BA01C6EF6B2965CF19FE4184A5BA45ABB2E5C36CD 0xEB 0xFB GAS CALLER SLT PUSH5 0x736F6C6343 STOP SDIV GT STOP ORIGIN "
				},
				"gasEstimates": {
					"creation": {
						"codeDepositCost": "155200",
						"executionCost": "202",
						"totalCost": "155402"
					},
					"external": {
						"VM_Test_FindNonce(bytes32,uint256)": "infinite"
					}
				},
				"methodIdentifiers": {
					"VM_Test_FindNonce(bytes32,uint256)": "30a6e63d"
				}
			},
			"storageLayout": {
				"storage": [],
				"types": null
			},
			"userdoc": {
				"methods": {}
			}
		}
	}
}