{
	"Sprint1.sol": {
		"BaBoBa": {
			"abi": [
				{
					"constant": true,
					"inputs": [
						{
							"internalType": "bytes32",
							"name": "hashOfCell",
							"type": "bytes32"
						},
						{
							"internalType": "uint256",
							"name": "power",
							"type": "uint256"
						}
					],
					"name": "VM_Test_FindNonce",
					"outputs": [
						{
							"internalType": "uint256",
							"name": "",
							"type": "uint256"
						},
						{
							"internalType": "bytes32",
							"name": "",
							"type": "bytes32"
						},
						{
							"internalType": "uint256",
							"name": "",
							"type": "uint256"
						},
						{
							"internalType": "uint256",
							"name": "",
							"type": "uint256"
						},
						{
							"internalType": "uint256",
							"name": "",
							"type": "uint256"
						}
					],
					"payable": false,
					"stateMutability": "view",
					"type": "function"
				},
				{
					"constant": false,
					"inputs": [],
					"name": "arrangeContract",
					"outputs": [
						{
							"internalType": "address",
							"name": "",
							"type": "address"
						}
					],
					"payable": false,
					"stateMutability": "nonpayable",
					"type": "function"
				},
				{
					"constant": false,
					"inputs": [
						{
							"internalType": "int256",
							"name": "x",
							"type": "int256"
						},
						{
							"internalType": "int256",
							"name": "y",
							"type": "int256"
						},
						{
							"internalType": "address payable",
							"name": "reciever",
							"type": "address"
						}
					],
					"name": "captureCell",
					"outputs": [],
					"payable": true,
					"stateMutability": "payable",
					"type": "function"
				},
				{
					"constant": true,
					"inputs": [
						{
							"internalType": "int256",
							"name": "x",
							"type": "int256"
						},
						{
							"internalType": "int256",
							"name": "y",
							"type": "int256"
						}
					],
					"name": "findNonce",
					"outputs": [
						{
							"internalType": "uint256",
							"name": "",
							"type": "uint256"
						},
						{
							"internalType": "bytes32",
							"name": "",
							"type": "bytes32"
						},
						{
							"internalType": "uint256",
							"name": "",
							"type": "uint256"
						},
						{
							"internalType": "uint256",
							"name": "",
							"type": "uint256"
						},
						{
							"internalType": "uint256",
							"name": "",
							"type": "uint256"
						}
					],
					"payable": false,
					"stateMutability": "view",
					"type": "function"
				},
				{
					"constant": true,
					"inputs": [],
					"name": "t_address",
					"outputs": [
						{
							"internalType": "address",
							"name": "",
							"type": "address"
						}
					],
					"payable": false,
					"stateMutability": "view",
					"type": "function"
				},
				{
					"constant": true,
					"inputs": [],
					"name": "teamNumber",
					"outputs": [
						{
							"internalType": "int256",
							"name": "",
							"type": "int256"
						}
					],
					"payable": false,
					"stateMutability": "view",
					"type": "function"
				}
			],
			"devdoc": {
				"methods": {}
			},
			"evm": {
				"assembly": "    /* \"Sprint1.sol\":1418:4741  contract BaBoBa{\r... */\n  mstore(0x40, 0x80)\n    /* \"Sprint1.sol\":1478:1520  0xA7c40D644bDB571F98D72A08AF2A1Fb4Ab4f24fe */\n  0xa7c40d644bdb571f98d72a08af2a1fb4ab4f24fe\n    /* \"Sprint1.sol\":1448:1520  address powerContractAddres = 0xA7c40D644bDB571F98D72A08AF2A1Fb4Ab4f24fe */\n  0x00\n  dup1\n  0x0100\n  exp\n  dup2\n  sload\n  dup2\n  0xffffffffffffffffffffffffffffffffffffffff\n  mul\n  not\n  and\n  swap1\n  dup4\n  0xffffffffffffffffffffffffffffffffffffffff\n  and\n  mul\n  or\n  swap1\n  sstore\n  pop\n    /* \"Sprint1.sol\":1544:1586  0x06D99001C37C88f996f629698c822F19dB68388D */\n  0x06d99001c37c88f996f629698c822f19db68388d\n    /* \"Sprint1.sol\":1528:1586  address myAdd = 0x06D99001C37C88f996f629698c822F19dB68388D */\n  0x01\n  exp(0x0100, 0x00)\n  dup2\n  sload\n  dup2\n  0xffffffffffffffffffffffffffffffffffffffff\n  mul\n  not\n  and\n  swap1\n  dup4\n  0xffffffffffffffffffffffffffffffffffffffff\n  and\n  mul\n  or\n  swap1\n  sstore\n  pop\n    /* \"Sprint1.sol\":1655:1674  powerContractAddres */\n  0x00\n  dup1\n  swap1\n  sload\n  swap1\n  0x0100\n  exp\n  swap1\n  div\n  0xffffffffffffffffffffffffffffffffffffffff\n  and\n    /* \"Sprint1.sol\":1594:1675  PowerContractInterface pc_interface = PowerContractInterface(powerContractAddres) */\n  0x02\n  exp(0x0100, 0x00)\n  dup2\n  sload\n  dup2\n  0xffffffffffffffffffffffffffffffffffffffff\n  mul\n  not\n  and\n  swap1\n  dup4\n  0xffffffffffffffffffffffffffffffffffffffff\n  and\n  mul\n  or\n  swap1\n  sstore\n  pop\n    /* \"Sprint1.sol\":2098:2115  arrangeContract() */\n  tag_1\n    /* \"Sprint1.sol\":2098:2113  arrangeContract */\n  shl(0x20, tag_2)\n    /* \"Sprint1.sol\":2098:2115  arrangeContract() */\n  0x20\n  shr\n  jump\t// in\ntag_1:\n    /* \"Sprint1.sol\":2070:2115  address public t_address =  arrangeContract() */\n  0x03\n  exp(0x0100, 0x00)\n  dup2\n  sload\n  dup2\n  0xffffffffffffffffffffffffffffffffffffffff\n  mul\n  not\n  and\n  swap1\n  dup4\n  0xffffffffffffffffffffffffffffffffffffffff\n  and\n  mul\n  or\n  swap1\n  sstore\n  pop\n    /* \"Sprint1.sol\":1418:4741  contract BaBoBa{\r... */\n  callvalue\n    /* \"--CODEGEN--\":8:17   */\n  dup1\n    /* \"--CODEGEN--\":5:7   */\n  iszero\n  tag_3\n  jumpi\n    /* \"--CODEGEN--\":30:31   */\n  0x00\n    /* \"--CODEGEN--\":27:28   */\n  dup1\n    /* \"--CODEGEN--\":20:32   */\n  revert\n    /* \"--CODEGEN--\":5:7   */\ntag_3:\n    /* \"Sprint1.sol\":1418:4741  contract BaBoBa{\r... */\n  pop\n  jump(tag_4)\n    /* \"Sprint1.sol\":1685:1905  function arrangeContract() public returns(address){\r... */\ntag_2:\n    /* \"Sprint1.sol\":1727:1734  address */\n  0x00\n    /* \"Sprint1.sol\":1760:1772  pc_interface */\n  0x02\n  0x00\n  swap1\n  sload\n  swap1\n  0x0100\n  exp\n  swap1\n  div\n  0xffffffffffffffffffffffffffffffffffffffff\n  and\n    /* \"Sprint1.sol\":1760:1790  pc_interface.setMyTeamContract */\n  0xffffffffffffffffffffffffffffffffffffffff\n  and\n  0x2a9c1512\n    /* \"Sprint1.sol\":1791:1796  myAdd */\n  0x01\n  0x00\n  swap1\n  sload\n  swap1\n  0x0100\n  exp\n  swap1\n  div\n  0xffffffffffffffffffffffffffffffffffffffff\n  and\n    /* \"Sprint1.sol\":1760:1797  pc_interface.setMyTeamContract(myAdd) */\n  mload(0x40)\n  dup3\n  0xffffffff\n  and\n  0xe0\n  shl\n  dup2\n  mstore\n  0x04\n  add\n  dup1\n  dup3\n  0xffffffffffffffffffffffffffffffffffffffff\n  and\n  0xffffffffffffffffffffffffffffffffffffffff\n  and\n  dup2\n  mstore\n  0x20\n  add\n  swap2\n  pop\n  pop\n  0x00\n  mload(0x40)\n  dup1\n  dup4\n  sub\n  dup2\n  0x00\n  dup8\n  dup1\n  extcodesize\n  iszero\n    /* \"--CODEGEN--\":8:17   */\n  dup1\n    /* \"--CODEGEN--\":5:7   */\n  iszero\n  tag_6\n  jumpi\n    /* \"--CODEGEN--\":30:31   */\n  0x00\n    /* \"--CODEGEN--\":27:28   */\n  dup1\n    /* \"--CODEGEN--\":20:32   */\n  revert\n    /* \"--CODEGEN--\":5:7   */\ntag_6:\n    /* \"Sprint1.sol\":1760:1797  pc_interface.setMyTeamContract(myAdd) */\n  pop\n  gas\n  call\n  iszero\n    /* \"--CODEGEN--\":8:17   */\n  dup1\n    /* \"--CODEGEN--\":5:7   */\n  iszero\n  tag_7\n  jumpi\n    /* \"--CODEGEN--\":45:61   */\n  returndatasize\n    /* \"--CODEGEN--\":42:43   */\n  0x00\n    /* \"--CODEGEN--\":39:40   */\n  dup1\n    /* \"--CODEGEN--\":24:62   */\n  returndatacopy\n    /* \"--CODEGEN--\":77:93   */\n  returndatasize\n    /* \"--CODEGEN--\":74:75   */\n  0x00\n    /* \"--CODEGEN--\":67:94   */\n  revert\n    /* \"--CODEGEN--\":5:7   */\ntag_7:\n    /* \"Sprint1.sol\":1760:1797  pc_interface.setMyTeamContract(myAdd) */\n  pop\n  pop\n  pop\n  pop\n    /* \"Sprint1.sol\":1811:1830  address teamAddress */\n  0x00\n    /* \"Sprint1.sol\":1833:1845  pc_interface */\n  0x02\n  0x00\n  swap1\n  sload\n  swap1\n  0x0100\n  exp\n  swap1\n  div\n  0xffffffffffffffffffffffffffffffffffffffff\n  and\n    /* \"Sprint1.sol\":1833:1863  pc_interface.getMyTeamContract */\n  0xffffffffffffffffffffffffffffffffffffffff\n  and\n  0x5e94a6a4\n    /* \"Sprint1.sol\":1833:1865  pc_interface.getMyTeamContract() */\n  mload(0x40)\n  dup2\n  0xffffffff\n  and\n  0xe0\n  shl\n  dup2\n  mstore\n  0x04\n  add\n  0x20\n  mload(0x40)\n  dup1\n  dup4\n  sub\n  dup2\n  dup7\n  dup1\n  extcodesize\n  iszero\n    /* \"--CODEGEN--\":8:17   */\n  dup1\n    /* \"--CODEGEN--\":5:7   */\n  iszero\n  tag_8\n  jumpi\n    /* \"--CODEGEN--\":30:31   */\n  0x00\n    /* \"--CODEGEN--\":27:28   */\n  dup1\n    /* \"--CODEGEN--\":20:32   */\n  revert\n    /* \"--CODEGEN--\":5:7   */\ntag_8:\n    /* \"Sprint1.sol\":1833:1865  pc_interface.getMyTeamContract() */\n  pop\n  gas\n  staticcall\n  iszero\n    /* \"--CODEGEN--\":8:17   */\n  dup1\n    /* \"--CODEGEN--\":5:7   */\n  iszero\n  tag_9\n  jumpi\n    /* \"--CODEGEN--\":45:61   */\n  returndatasize\n    /* \"--CODEGEN--\":42:43   */\n  0x00\n    /* \"--CODEGEN--\":39:40   */\n  dup1\n    /* \"--CODEGEN--\":24:62   */\n  returndatacopy\n    /* \"--CODEGEN--\":77:93   */\n  returndatasize\n    /* \"--CODEGEN--\":74:75   */\n  0x00\n    /* \"--CODEGEN--\":67:94   */\n  revert\n    /* \"--CODEGEN--\":5:7   */\ntag_9:\n    /* \"Sprint1.sol\":1833:1865  pc_interface.getMyTeamContract() */\n  pop\n  pop\n  pop\n  pop\n  mload(0x40)\n  returndatasize\n    /* \"--CODEGEN--\":13:15   */\n  0x20\n    /* \"--CODEGEN--\":8:11   */\n  dup2\n    /* \"--CODEGEN--\":5:16   */\n  lt\n    /* \"--CODEGEN--\":2:4   */\n  iszero\n  tag_10\n  jumpi\n    /* \"--CODEGEN--\":29:30   */\n  0x00\n    /* \"--CODEGEN--\":26:27   */\n  dup1\n    /* \"--CODEGEN--\":19:31   */\n  revert\n    /* \"--CODEGEN--\":2:4   */\ntag_10:\n    /* \"Sprint1.sol\":1833:1865  pc_interface.getMyTeamContract() */\n  dup2\n  add\n  swap1\n  dup1\n  dup1\n  mload\n  swap1\n  0x20\n  add\n  swap1\n  swap3\n  swap2\n  swap1\n  pop\n  pop\n  pop\n    /* \"Sprint1.sol\":1811:1865  address teamAddress = pc_interface.getMyTeamContract() */\n  swap1\n  pop\n    /* \"Sprint1.sol\":1885:1896  teamAddress */\n  dup1\n    /* \"Sprint1.sol\":1878:1896  return teamAddress */\n  swap2\n  pop\n  pop\n    /* \"Sprint1.sol\":1685:1905  function arrangeContract() public returns(address){\r... */\n  swap1\n  jump\t// out\n    /* \"Sprint1.sol\":1418:4741  contract BaBoBa{\r... */\ntag_4:\n  dataSize(sub_0)\n  dup1\n  dataOffset(sub_0)\n  0x00\n  codecopy\n  0x00\n  return\nstop\n\nsub_0: assembly {\n        /* \"Sprint1.sol\":1418:4741  contract BaBoBa{\r... */\n      mstore(0x40, 0x80)\n      jumpi(tag_1, lt(calldatasize, 0x04))\n      shr(0xe0, calldataload(0x00))\n      dup1\n      0x045bbbb2\n      eq\n      tag_2\n      jumpi\n      dup1\n      0x0cd9a64d\n      eq\n      tag_3\n      jumpi\n      dup1\n      0x30a6e63d\n      eq\n      tag_4\n      jumpi\n      dup1\n      0x6881e114\n      eq\n      tag_5\n      jumpi\n      dup1\n      0x7ba334ef\n      eq\n      tag_6\n      jumpi\n      dup1\n      0xcf2b96bf\n      eq\n      tag_7\n      jumpi\n    tag_1:\n      0x00\n      dup1\n      revert\n        /* \"Sprint1.sol\":1914:2061  function teamNumber() public view returns(int){\r... */\n    tag_2:\n      callvalue\n        /* \"--CODEGEN--\":8:17   */\n      dup1\n        /* \"--CODEGEN--\":5:7   */\n      iszero\n      tag_8\n      jumpi\n        /* \"--CODEGEN--\":30:31   */\n      0x00\n        /* \"--CODEGEN--\":27:28   */\n      dup1\n        /* \"--CODEGEN--\":20:32   */\n      revert\n        /* \"--CODEGEN--\":5:7   */\n    tag_8:\n        /* \"Sprint1.sol\":1914:2061  function teamNumber() public view returns(int){\r... */\n      pop\n      tag_9\n      tag_10\n      jump\t// in\n    tag_9:\n      mload(0x40)\n      dup1\n      dup3\n      dup2\n      mstore\n      0x20\n      add\n      swap2\n      pop\n      pop\n      mload(0x40)\n      dup1\n      swap2\n      sub\n      swap1\n      return\n        /* \"Sprint1.sol\":2070:2115  address public t_address =  arrangeContract() */\n    tag_3:\n      callvalue\n        /* \"--CODEGEN--\":8:17   */\n      dup1\n        /* \"--CODEGEN--\":5:7   */\n      iszero\n      tag_11\n      jumpi\n        /* \"--CODEGEN--\":30:31   */\n      0x00\n        /* \"--CODEGEN--\":27:28   */\n      dup1\n        /* \"--CODEGEN--\":20:32   */\n      revert\n        /* \"--CODEGEN--\":5:7   */\n    tag_11:\n        /* \"Sprint1.sol\":2070:2115  address public t_address =  arrangeContract() */\n      pop\n      tag_12\n      tag_13\n      jump\t// in\n    tag_12:\n      mload(0x40)\n      dup1\n      dup3\n      0xffffffffffffffffffffffffffffffffffffffff\n      and\n      0xffffffffffffffffffffffffffffffffffffffff\n      and\n      dup2\n      mstore\n      0x20\n      add\n      swap2\n      pop\n      pop\n      mload(0x40)\n      dup1\n      swap2\n      sub\n      swap1\n      return\n        /* \"Sprint1.sol\":3442:4568  function VM_Test_FindNonce(bytes32 hashOfCell,uint256 power) view public returns(uint256,bytes32,uint256,uint256,uint256){\r... */\n    tag_4:\n      callvalue\n        /* \"--CODEGEN--\":8:17   */\n      dup1\n        /* \"--CODEGEN--\":5:7   */\n      iszero\n      tag_14\n      jumpi\n        /* \"--CODEGEN--\":30:31   */\n      0x00\n        /* \"--CODEGEN--\":27:28   */\n      dup1\n        /* \"--CODEGEN--\":20:32   */\n      revert\n        /* \"--CODEGEN--\":5:7   */\n    tag_14:\n        /* \"Sprint1.sol\":3442:4568  function VM_Test_FindNonce(bytes32 hashOfCell,uint256 power) view public returns(uint256,bytes32,uint256,uint256,uint256){\r... */\n      pop\n      tag_15\n      0x04\n      dup1\n      calldatasize\n      sub\n        /* \"--CODEGEN--\":13:15   */\n      0x40\n        /* \"--CODEGEN--\":8:11   */\n      dup2\n        /* \"--CODEGEN--\":5:16   */\n      lt\n        /* \"--CODEGEN--\":2:4   */\n      iszero\n      tag_16\n      jumpi\n        /* \"--CODEGEN--\":29:30   */\n      0x00\n        /* \"--CODEGEN--\":26:27   */\n      dup1\n        /* \"--CODEGEN--\":19:31   */\n      revert\n        /* \"--CODEGEN--\":2:4   */\n    tag_16:\n        /* \"Sprint1.sol\":3442:4568  function VM_Test_FindNonce(bytes32 hashOfCell,uint256 power) view public returns(uint256,bytes32,uint256,uint256,uint256){\r... */\n      dup2\n      add\n      swap1\n      dup1\n      dup1\n      calldataload\n      swap1\n      0x20\n      add\n      swap1\n      swap3\n      swap2\n      swap1\n      dup1\n      calldataload\n      swap1\n      0x20\n      add\n      swap1\n      swap3\n      swap2\n      swap1\n      pop\n      pop\n      pop\n      tag_17\n      jump\t// in\n    tag_15:\n      mload(0x40)\n      dup1\n      dup7\n      dup2\n      mstore\n      0x20\n      add\n      dup6\n      dup2\n      mstore\n      0x20\n      add\n      dup5\n      dup2\n      mstore\n      0x20\n      add\n      dup4\n      dup2\n      mstore\n      0x20\n      add\n      dup3\n      dup2\n      mstore\n      0x20\n      add\n      swap6\n      pop\n      pop\n      pop\n      pop\n      pop\n      pop\n      mload(0x40)\n      dup1\n      swap2\n      sub\n      swap1\n      return\n        /* \"Sprint1.sol\":1685:1905  function arrangeContract() public returns(address){\r... */\n    tag_5:\n      callvalue\n        /* \"--CODEGEN--\":8:17   */\n      dup1\n        /* \"--CODEGEN--\":5:7   */\n      iszero\n      tag_18\n      jumpi\n        /* \"--CODEGEN--\":30:31   */\n      0x00\n        /* \"--CODEGEN--\":27:28   */\n      dup1\n        /* \"--CODEGEN--\":20:32   */\n      revert\n        /* \"--CODEGEN--\":5:7   */\n    tag_18:\n        /* \"Sprint1.sol\":1685:1905  function arrangeContract() public returns(address){\r... */\n      pop\n      tag_19\n      tag_20\n      jump\t// in\n    tag_19:\n      mload(0x40)\n      dup1\n      dup3\n      0xffffffffffffffffffffffffffffffffffffffff\n      and\n      0xffffffffffffffffffffffffffffffffffffffff\n      and\n      dup2\n      mstore\n      0x20\n      add\n      swap2\n      pop\n      pop\n      mload(0x40)\n      dup1\n      swap2\n      sub\n      swap1\n      return\n        /* \"Sprint1.sol\":2139:3322  function findNonce(int x,int y)public view returns(uint256,bytes32,uint256,uint256,uint256){\r... */\n    tag_6:\n      callvalue\n        /* \"--CODEGEN--\":8:17   */\n      dup1\n        /* \"--CODEGEN--\":5:7   */\n      iszero\n      tag_21\n      jumpi\n        /* \"--CODEGEN--\":30:31   */\n      0x00\n        /* \"--CODEGEN--\":27:28   */\n      dup1\n        /* \"--CODEGEN--\":20:32   */\n      revert\n        /* \"--CODEGEN--\":5:7   */\n    tag_21:\n        /* \"Sprint1.sol\":2139:3322  function findNonce(int x,int y)public view returns(uint256,bytes32,uint256,uint256,uint256){\r... */\n      pop\n      tag_22\n      0x04\n      dup1\n      calldatasize\n      sub\n        /* \"--CODEGEN--\":13:15   */\n      0x40\n        /* \"--CODEGEN--\":8:11   */\n      dup2\n        /* \"--CODEGEN--\":5:16   */\n      lt\n        /* \"--CODEGEN--\":2:4   */\n      iszero\n      tag_23\n      jumpi\n        /* \"--CODEGEN--\":29:30   */\n      0x00\n        /* \"--CODEGEN--\":26:27   */\n      dup1\n        /* \"--CODEGEN--\":19:31   */\n      revert\n        /* \"--CODEGEN--\":2:4   */\n    tag_23:\n        /* \"Sprint1.sol\":2139:3322  function findNonce(int x,int y)public view returns(uint256,bytes32,uint256,uint256,uint256){\r... */\n      dup2\n      add\n      swap1\n      dup1\n      dup1\n      calldataload\n      swap1\n      0x20\n      add\n      swap1\n      swap3\n      swap2\n      swap1\n      dup1\n      calldataload\n      swap1\n      0x20\n      add\n      swap1\n      swap3\n      swap2\n      swap1\n      pop\n      pop\n      pop\n      tag_24\n      jump\t// in\n    tag_22:\n      mload(0x40)\n      dup1\n      dup7\n      dup2\n      mstore\n      0x20\n      add\n      dup6\n      dup2\n      mstore\n      0x20\n      add\n      dup5\n      dup2\n      mstore\n      0x20\n      add\n      dup4\n      dup2\n      mstore\n      0x20\n      add\n      dup3\n      dup2\n      mstore\n      0x20\n      add\n      swap6\n      pop\n      pop\n      pop\n      pop\n      pop\n      pop\n      mload(0x40)\n      dup1\n      swap2\n      sub\n      swap1\n      return\n        /* \"Sprint1.sol\":4577:4724  function captureCell(int x, int y,address payable reciever) payable public{\r... */\n    tag_7:\n      tag_25\n      0x04\n      dup1\n      calldatasize\n      sub\n        /* \"--CODEGEN--\":13:15   */\n      0x60\n        /* \"--CODEGEN--\":8:11   */\n      dup2\n        /* \"--CODEGEN--\":5:16   */\n      lt\n        /* \"--CODEGEN--\":2:4   */\n      iszero\n      tag_26\n      jumpi\n        /* \"--CODEGEN--\":29:30   */\n      0x00\n        /* \"--CODEGEN--\":26:27   */\n      dup1\n        /* \"--CODEGEN--\":19:31   */\n      revert\n        /* \"--CODEGEN--\":2:4   */\n    tag_26:\n        /* \"Sprint1.sol\":4577:4724  function captureCell(int x, int y,address payable reciever) payable public{\r... */\n      dup2\n      add\n      swap1\n      dup1\n      dup1\n      calldataload\n      swap1\n      0x20\n      add\n      swap1\n      swap3\n      swap2\n      swap1\n      dup1\n      calldataload\n      swap1\n      0x20\n      add\n      swap1\n      swap3\n      swap2\n      swap1\n      dup1\n      calldataload\n      0xffffffffffffffffffffffffffffffffffffffff\n      and\n      swap1\n      0x20\n      add\n      swap1\n      swap3\n      swap2\n      swap1\n      pop\n      pop\n      pop\n      tag_27\n      jump\t// in\n    tag_25:\n      stop\n        /* \"Sprint1.sol\":1914:2061  function teamNumber() public view returns(int){\r... */\n    tag_10:\n        /* \"Sprint1.sol\":1956:1959  int */\n      0x00\n        /* \"Sprint1.sol\":1973:1988  int team_number */\n      dup1\n        /* \"Sprint1.sol\":1991:2003  pc_interface */\n      0x02\n      0x00\n      swap1\n      sload\n      swap1\n      0x0100\n      exp\n      swap1\n      div\n      0xffffffffffffffffffffffffffffffffffffffff\n      and\n        /* \"Sprint1.sol\":1991:2019  pc_interface.getMyTeamNumber */\n      0xffffffffffffffffffffffffffffffffffffffff\n      and\n      0xb2de2d40\n        /* \"Sprint1.sol\":1991:2021  pc_interface.getMyTeamNumber() */\n      mload(0x40)\n      dup2\n      0xffffffff\n      and\n      0xe0\n      shl\n      dup2\n      mstore\n      0x04\n      add\n      0x20\n      mload(0x40)\n      dup1\n      dup4\n      sub\n      dup2\n      dup7\n      dup1\n      extcodesize\n      iszero\n        /* \"--CODEGEN--\":8:17   */\n      dup1\n        /* \"--CODEGEN--\":5:7   */\n      iszero\n      tag_29\n      jumpi\n        /* \"--CODEGEN--\":30:31   */\n      0x00\n        /* \"--CODEGEN--\":27:28   */\n      dup1\n        /* \"--CODEGEN--\":20:32   */\n      revert\n        /* \"--CODEGEN--\":5:7   */\n    tag_29:\n        /* \"Sprint1.sol\":1991:2021  pc_interface.getMyTeamNumber() */\n      pop\n      gas\n      staticcall\n      iszero\n        /* \"--CODEGEN--\":8:17   */\n      dup1\n        /* \"--CODEGEN--\":5:7   */\n      iszero\n      tag_30\n      jumpi\n        /* \"--CODEGEN--\":45:61   */\n      returndatasize\n        /* \"--CODEGEN--\":42:43   */\n      0x00\n        /* \"--CODEGEN--\":39:40   */\n      dup1\n        /* \"--CODEGEN--\":24:62   */\n      returndatacopy\n        /* \"--CODEGEN--\":77:93   */\n      returndatasize\n        /* \"--CODEGEN--\":74:75   */\n      0x00\n        /* \"--CODEGEN--\":67:94   */\n      revert\n        /* \"--CODEGEN--\":5:7   */\n    tag_30:\n        /* \"Sprint1.sol\":1991:2021  pc_interface.getMyTeamNumber() */\n      pop\n      pop\n      pop\n      pop\n      mload(0x40)\n      returndatasize\n        /* \"--CODEGEN--\":13:15   */\n      0x20\n        /* \"--CODEGEN--\":8:11   */\n      dup2\n        /* \"--CODEGEN--\":5:16   */\n      lt\n        /* \"--CODEGEN--\":2:4   */\n      iszero\n      tag_31\n      jumpi\n        /* \"--CODEGEN--\":29:30   */\n      0x00\n        /* \"--CODEGEN--\":26:27   */\n      dup1\n        /* \"--CODEGEN--\":19:31   */\n      revert\n        /* \"--CODEGEN--\":2:4   */\n    tag_31:\n        /* \"Sprint1.sol\":1991:2021  pc_interface.getMyTeamNumber() */\n      dup2\n      add\n      swap1\n      dup1\n      dup1\n      mload\n      swap1\n      0x20\n      add\n      swap1\n      swap3\n      swap2\n      swap1\n      pop\n      pop\n      pop\n        /* \"Sprint1.sol\":1973:2021  int team_number = pc_interface.getMyTeamNumber() */\n      swap1\n      pop\n        /* \"Sprint1.sol\":2041:2052  team_number */\n      dup1\n        /* \"Sprint1.sol\":2034:2052  return team_number */\n      swap2\n      pop\n      pop\n        /* \"Sprint1.sol\":1914:2061  function teamNumber() public view returns(int){\r... */\n      swap1\n      jump\t// out\n        /* \"Sprint1.sol\":2070:2115  address public t_address =  arrangeContract() */\n    tag_13:\n      0x03\n      0x00\n      swap1\n      sload\n      swap1\n      0x0100\n      exp\n      swap1\n      div\n      0xffffffffffffffffffffffffffffffffffffffff\n      and\n      dup2\n      jump\t// out\n        /* \"Sprint1.sol\":3442:4568  function VM_Test_FindNonce(bytes32 hashOfCell,uint256 power) view public returns(uint256,bytes32,uint256,uint256,uint256){\r... */\n    tag_17:\n        /* \"Sprint1.sol\":3523:3530  uint256 */\n      0x00\n        /* \"Sprint1.sol\":3531:3538  bytes32 */\n      dup1\n        /* \"Sprint1.sol\":3539:3546  uint256 */\n      0x00\n        /* \"Sprint1.sol\":3547:3554  uint256 */\n      dup1\n        /* \"Sprint1.sol\":3555:3562  uint256 */\n      0x00\n        /* \"Sprint1.sol\":3578:3591  int256 teamNo */\n      dup1\n        /* \"Sprint1.sol\":3594:3595  5 */\n      0x05\n        /* \"Sprint1.sol\":3578:3595  int256 teamNo = 5 */\n      swap1\n      pop\n        /* \"Sprint1.sol\":3608:3630  bytes32 bytes32_TeamNo */\n      0x00\n        /* \"Sprint1.sol\":3641:3647  teamNo */\n      dup2\n        /* \"Sprint1.sol\":3633:3648  bytes32(teamNo) */\n      0x00\n      shl\n        /* \"Sprint1.sol\":3608:3648  bytes32 bytes32_TeamNo = bytes32(teamNo) */\n      swap1\n      pop\n        /* \"Sprint1.sol\":3663:3680  bytes32  cellHash */\n      0x00\n        /* \"Sprint1.sol\":3683:3693  hashOfCell */\n      dup10\n        /* \"Sprint1.sol\":3663:3693  bytes32  cellHash = hashOfCell */\n      swap1\n      pop\n        /* \"Sprint1.sol\":3706:3718  uint256  pow */\n      0x00\n        /* \"Sprint1.sol\":3721:3726  power */\n      dup10\n        /* \"Sprint1.sol\":3706:3726  uint256  pow = power */\n      swap1\n      pop\n        /* \"Sprint1.sol\":3739:3750  uint  nonce */\n      0x00\n        /* \"Sprint1.sol\":3753:3754  1 */\n      0x01\n        /* \"Sprint1.sol\":3739:3754  uint  nonce = 1 */\n      swap1\n      pop\n        /* \"Sprint1.sol\":3768:3784  bytes32  newHash */\n      0x00\n        /* \"Sprint1.sol\":3787:3842  sha256(abi.encodePacked(cellHash,bytes32_TeamNo,nonce)) */\n      0x02\n        /* \"Sprint1.sol\":3811:3819  cellHash */\n      dup5\n        /* \"Sprint1.sol\":3820:3834  bytes32_TeamNo */\n      dup7\n        /* \"Sprint1.sol\":3835:3840  nonce */\n      dup5\n        /* \"Sprint1.sol\":3794:3841  abi.encodePacked(cellHash,bytes32_TeamNo,nonce) */\n      add(0x20, mload(0x40))\n      dup1\n      dup5\n      dup2\n      mstore\n      0x20\n      add\n      dup4\n      dup2\n      mstore\n      0x20\n      add\n      dup3\n      dup2\n      mstore\n      0x20\n      add\n      swap4\n      pop\n      pop\n      pop\n      pop\n      mload(0x40)\n        /* \"--CODEGEN--\":49:53   */\n      0x20\n        /* \"--CODEGEN--\":39:46   */\n      dup2\n        /* \"--CODEGEN--\":30:37   */\n      dup4\n        /* \"--CODEGEN--\":26:47   */\n      sub\n        /* \"--CODEGEN--\":22:54   */\n      sub\n        /* \"--CODEGEN--\":13:20   */\n      dup2\n        /* \"--CODEGEN--\":6:55   */\n      mstore\n        /* \"Sprint1.sol\":3794:3841  abi.encodePacked(cellHash,bytes32_TeamNo,nonce) */\n      swap1\n      0x40\n      mstore\n        /* \"Sprint1.sol\":3787:3842  sha256(abi.encodePacked(cellHash,bytes32_TeamNo,nonce)) */\n      mload(0x40)\n      dup1\n      dup3\n      dup1\n      mload\n      swap1\n      0x20\n      add\n      swap1\n      dup1\n      dup4\n      dup4\n        /* \"--CODEGEN--\":36:189   */\n    tag_33:\n        /* \"--CODEGEN--\":66:68   */\n      0x20\n        /* \"--CODEGEN--\":61:64   */\n      dup4\n        /* \"--CODEGEN--\":58:69   */\n      lt\n        /* \"--CODEGEN--\":36:189   */\n      tag_35\n      jumpi\n        /* \"--CODEGEN--\":182:185   */\n      dup1\n        /* \"--CODEGEN--\":176:186   */\n      mload\n        /* \"--CODEGEN--\":171:174   */\n      dup3\n        /* \"--CODEGEN--\":164:187   */\n      mstore\n        /* \"--CODEGEN--\":98:100   */\n      0x20\n        /* \"--CODEGEN--\":93:96   */\n      dup3\n        /* \"--CODEGEN--\":89:101   */\n      add\n        /* \"--CODEGEN--\":82:101   */\n      swap2\n      pop\n        /* \"--CODEGEN--\":123:125   */\n      0x20\n        /* \"--CODEGEN--\":118:121   */\n      dup2\n        /* \"--CODEGEN--\":114:126   */\n      add\n        /* \"--CODEGEN--\":107:126   */\n      swap1\n      pop\n        /* \"--CODEGEN--\":148:150   */\n      0x20\n        /* \"--CODEGEN--\":143:146   */\n      dup4\n        /* \"--CODEGEN--\":139:151   */\n      sub\n        /* \"--CODEGEN--\":132:151   */\n      swap3\n      pop\n        /* \"--CODEGEN--\":36:189   */\n      jump(tag_33)\n    tag_35:\n        /* \"--CODEGEN--\":274:275   */\n      0x01\n        /* \"--CODEGEN--\":267:270   */\n      dup4\n        /* \"--CODEGEN--\":263:265   */\n      0x20\n        /* \"--CODEGEN--\":259:271   */\n      sub\n        /* \"--CODEGEN--\":254:257   */\n      0x0100\n        /* \"--CODEGEN--\":250:272   */\n      exp\n        /* \"--CODEGEN--\":246:276   */\n      sub\n        /* \"--CODEGEN--\":315:319   */\n      dup1\n        /* \"--CODEGEN--\":311:320   */\n      not\n        /* \"--CODEGEN--\":305:308   */\n      dup3\n        /* \"--CODEGEN--\":299:309   */\n      mload\n        /* \"--CODEGEN--\":295:321   */\n      and\n        /* \"--CODEGEN--\":356:360   */\n      dup2\n        /* \"--CODEGEN--\":350:353   */\n      dup5\n        /* \"--CODEGEN--\":344:354   */\n      mload\n        /* \"--CODEGEN--\":340:361   */\n      and\n        /* \"--CODEGEN--\":389:396   */\n      dup1\n        /* \"--CODEGEN--\":380:387   */\n      dup3\n        /* \"--CODEGEN--\":377:397   */\n      or\n        /* \"--CODEGEN--\":372:375   */\n      dup6\n        /* \"--CODEGEN--\":365:398   */\n      mstore\n        /* \"--CODEGEN--\":3:402   */\n      pop\n      pop\n      pop\n        /* \"Sprint1.sol\":3787:3842  sha256(abi.encodePacked(cellHash,bytes32_TeamNo,nonce)) */\n      pop\n      pop\n      pop\n      swap1\n      pop\n      add\n      swap2\n      pop\n      pop\n      0x20\n      mload(0x40)\n      dup1\n      dup4\n      sub\n      dup2\n      dup6\n      gas\n      staticcall\n      iszero\n        /* \"--CODEGEN--\":8:17   */\n      dup1\n        /* \"--CODEGEN--\":5:7   */\n      iszero\n      tag_36\n      jumpi\n        /* \"--CODEGEN--\":45:61   */\n      returndatasize\n        /* \"--CODEGEN--\":42:43   */\n      0x00\n        /* \"--CODEGEN--\":39:40   */\n      dup1\n        /* \"--CODEGEN--\":24:62   */\n      returndatacopy\n        /* \"--CODEGEN--\":77:93   */\n      returndatasize\n        /* \"--CODEGEN--\":74:75   */\n      0x00\n        /* \"--CODEGEN--\":67:94   */\n      revert\n        /* \"--CODEGEN--\":5:7   */\n    tag_36:\n        /* \"Sprint1.sol\":3787:3842  sha256(abi.encodePacked(cellHash,bytes32_TeamNo,nonce)) */\n      pop\n      pop\n      pop\n      mload(0x40)\n      returndatasize\n        /* \"--CODEGEN--\":13:15   */\n      0x20\n        /* \"--CODEGEN--\":8:11   */\n      dup2\n        /* \"--CODEGEN--\":5:16   */\n      lt\n        /* \"--CODEGEN--\":2:4   */\n      iszero\n      tag_37\n      jumpi\n        /* \"--CODEGEN--\":29:30   */\n      0x00\n        /* \"--CODEGEN--\":26:27   */\n      dup1\n        /* \"--CODEGEN--\":19:31   */\n      revert\n        /* \"--CODEGEN--\":2:4   */\n    tag_37:\n        /* \"Sprint1.sol\":3787:3842  sha256(abi.encodePacked(cellHash,bytes32_TeamNo,nonce)) */\n      dup2\n      add\n      swap1\n      dup1\n      dup1\n      mload\n      swap1\n      0x20\n      add\n      swap1\n      swap3\n      swap2\n      swap1\n      pop\n      pop\n      pop\n        /* \"Sprint1.sol\":3768:3842  bytes32  newHash = sha256(abi.encodePacked(cellHash,bytes32_TeamNo,nonce)) */\n      swap1\n      pop\n        /* \"Sprint1.sol\":3857:3877  uint  multiplication */\n      0x00\n        /* \"Sprint1.sol\":3898:3901  pow */\n      dup4\n        /* \"Sprint1.sol\":3895:3896  2 */\n      0x02\n        /* \"Sprint1.sol\":3895:3901  2**pow */\n      exp\n        /* \"Sprint1.sol\":3885:3892  newHash */\n      dup3\n        /* \"Sprint1.sol\":3880:3893  uint(newHash) */\n      0x00\n      shr\n        /* \"Sprint1.sol\":3880:3902  uint(newHash)*(2**pow) */\n      mul\n        /* \"Sprint1.sol\":3857:3902  uint  multiplication = uint(newHash)*(2**pow) */\n      swap1\n      pop\n        /* \"Sprint1.sol\":3915:3933  bytes32  finalHash */\n      0x00\n        /* \"Sprint1.sol\":3944:3958  multiplication */\n      dup2\n        /* \"Sprint1.sol\":3936:3959  bytes32(multiplication) */\n      0x00\n      shl\n        /* \"Sprint1.sol\":3915:3959  bytes32  finalHash = bytes32(multiplication) */\n      swap1\n      pop\n        /* \"Sprint1.sol\":3974:3994  uint256 int_cellHash */\n      0x00\n        /* \"Sprint1.sol\":4005:4013  cellHash */\n      dup7\n        /* \"Sprint1.sol\":3997:4014  uint256(cellHash) */\n      0x00\n      shr\n        /* \"Sprint1.sol\":3974:4014  uint256 int_cellHash = uint256(cellHash) */\n      swap1\n      pop\n        /* \"Sprint1.sol\":4027:4046  uint256 int_newHash */\n      0x00\n        /* \"Sprint1.sol\":4057:4064  newHash */\n      dup5\n        /* \"Sprint1.sol\":4049:4065  uint256(newHash) */\n      0x00\n      shr\n        /* \"Sprint1.sol\":4027:4065  uint256 int_newHash = uint256(newHash) */\n      swap1\n      pop\n        /* \"Sprint1.sol\":4098:4109  int_newHash */\n      dup1\n        /* \"Sprint1.sol\":4083:4095  int_cellHash */\n      dup3\n        /* \"Sprint1.sol\":4083:4109  int_cellHash > int_newHash */\n      gt\n        /* \"Sprint1.sol\":4080:4472  if(int_cellHash > int_newHash){\r... */\n      iszero\n      tag_38\n      jumpi\n        /* \"Sprint1.sol\":4128:4308  while(int_cellHash > int_newHash){\r... */\n    tag_39:\n        /* \"Sprint1.sol\":4149:4160  int_newHash */\n      dup1\n        /* \"Sprint1.sol\":4134:4146  int_cellHash */\n      dup3\n        /* \"Sprint1.sol\":4134:4160  int_cellHash > int_newHash */\n      gt\n        /* \"Sprint1.sol\":4128:4308  while(int_cellHash > int_newHash){\r... */\n      iszero\n      tag_40\n      jumpi\n        /* \"Sprint1.sol\":4201:4256  sha256(abi.encodePacked(cellHash,bytes32_TeamNo,nonce)) */\n      0x02\n        /* \"Sprint1.sol\":4225:4233  cellHash */\n      dup9\n        /* \"Sprint1.sol\":4234:4248  bytes32_TeamNo */\n      dup11\n        /* \"Sprint1.sol\":4249:4254  nonce */\n      dup9\n        /* \"Sprint1.sol\":4208:4255  abi.encodePacked(cellHash,bytes32_TeamNo,nonce) */\n      add(0x20, mload(0x40))\n      dup1\n      dup5\n      dup2\n      mstore\n      0x20\n      add\n      dup4\n      dup2\n      mstore\n      0x20\n      add\n      dup3\n      dup2\n      mstore\n      0x20\n      add\n      swap4\n      pop\n      pop\n      pop\n      pop\n      mload(0x40)\n        /* \"--CODEGEN--\":49:53   */\n      0x20\n        /* \"--CODEGEN--\":39:46   */\n      dup2\n        /* \"--CODEGEN--\":30:37   */\n      dup4\n        /* \"--CODEGEN--\":26:47   */\n      sub\n        /* \"--CODEGEN--\":22:54   */\n      sub\n        /* \"--CODEGEN--\":13:20   */\n      dup2\n        /* \"--CODEGEN--\":6:55   */\n      mstore\n        /* \"Sprint1.sol\":4208:4255  abi.encodePacked(cellHash,bytes32_TeamNo,nonce) */\n      swap1\n      0x40\n      mstore\n        /* \"Sprint1.sol\":4201:4256  sha256(abi.encodePacked(cellHash,bytes32_TeamNo,nonce)) */\n      mload(0x40)\n      dup1\n      dup3\n      dup1\n      mload\n      swap1\n      0x20\n      add\n      swap1\n      dup1\n      dup4\n      dup4\n        /* \"--CODEGEN--\":36:189   */\n    tag_41:\n        /* \"--CODEGEN--\":66:68   */\n      0x20\n        /* \"--CODEGEN--\":61:64   */\n      dup4\n        /* \"--CODEGEN--\":58:69   */\n      lt\n        /* \"--CODEGEN--\":36:189   */\n      tag_43\n      jumpi\n        /* \"--CODEGEN--\":182:185   */\n      dup1\n        /* \"--CODEGEN--\":176:186   */\n      mload\n        /* \"--CODEGEN--\":171:174   */\n      dup3\n        /* \"--CODEGEN--\":164:187   */\n      mstore\n        /* \"--CODEGEN--\":98:100   */\n      0x20\n        /* \"--CODEGEN--\":93:96   */\n      dup3\n        /* \"--CODEGEN--\":89:101   */\n      add\n        /* \"--CODEGEN--\":82:101   */\n      swap2\n      pop\n        /* \"--CODEGEN--\":123:125   */\n      0x20\n        /* \"--CODEGEN--\":118:121   */\n      dup2\n        /* \"--CODEGEN--\":114:126   */\n      add\n        /* \"--CODEGEN--\":107:126   */\n      swap1\n      pop\n        /* \"--CODEGEN--\":148:150   */\n      0x20\n        /* \"--CODEGEN--\":143:146   */\n      dup4\n        /* \"--CODEGEN--\":139:151   */\n      sub\n        /* \"--CODEGEN--\":132:151   */\n      swap3\n      pop\n        /* \"--CODEGEN--\":36:189   */\n      jump(tag_41)\n    tag_43:\n        /* \"--CODEGEN--\":274:275   */\n      0x01\n        /* \"--CODEGEN--\":267:270   */\n      dup4\n        /* \"--CODEGEN--\":263:265   */\n      0x20\n        /* \"--CODEGEN--\":259:271   */\n      sub\n        /* \"--CODEGEN--\":254:257   */\n      0x0100\n        /* \"--CODEGEN--\":250:272   */\n      exp\n        /* \"--CODEGEN--\":246:276   */\n      sub\n        /* \"--CODEGEN--\":315:319   */\n      dup1\n        /* \"--CODEGEN--\":311:320   */\n      not\n        /* \"--CODEGEN--\":305:308   */\n      dup3\n        /* \"--CODEGEN--\":299:309   */\n      mload\n        /* \"--CODEGEN--\":295:321   */\n      and\n        /* \"--CODEGEN--\":356:360   */\n      dup2\n        /* \"--CODEGEN--\":350:353   */\n      dup5\n        /* \"--CODEGEN--\":344:354   */\n      mload\n        /* \"--CODEGEN--\":340:361   */\n      and\n        /* \"--CODEGEN--\":389:396   */\n      dup1\n        /* \"--CODEGEN--\":380:387   */\n      dup3\n        /* \"--CODEGEN--\":377:397   */\n      or\n        /* \"--CODEGEN--\":372:375   */\n      dup6\n        /* \"--CODEGEN--\":365:398   */\n      mstore\n        /* \"--CODEGEN--\":3:402   */\n      pop\n      pop\n      pop\n        /* \"Sprint1.sol\":4201:4256  sha256(abi.encodePacked(cellHash,bytes32_TeamNo,nonce)) */\n      pop\n      pop\n      pop\n      swap1\n      pop\n      add\n      swap2\n      pop\n      pop\n      0x20\n      mload(0x40)\n      dup1\n      dup4\n      sub\n      dup2\n      dup6\n      gas\n      staticcall\n      iszero\n        /* \"--CODEGEN--\":8:17   */\n      dup1\n        /* \"--CODEGEN--\":5:7   */\n      iszero\n      tag_44\n      jumpi\n        /* \"--CODEGEN--\":45:61   */\n      returndatasize\n        /* \"--CODEGEN--\":42:43   */\n      0x00\n        /* \"--CODEGEN--\":39:40   */\n      dup1\n        /* \"--CODEGEN--\":24:62   */\n      returndatacopy\n        /* \"--CODEGEN--\":77:93   */\n      returndatasize\n        /* \"--CODEGEN--\":74:75   */\n      0x00\n        /* \"--CODEGEN--\":67:94   */\n      revert\n        /* \"--CODEGEN--\":5:7   */\n    tag_44:\n        /* \"Sprint1.sol\":4201:4256  sha256(abi.encodePacked(cellHash,bytes32_TeamNo,nonce)) */\n      pop\n      pop\n      pop\n      mload(0x40)\n      returndatasize\n        /* \"--CODEGEN--\":13:15   */\n      0x20\n        /* \"--CODEGEN--\":8:11   */\n      dup2\n        /* \"--CODEGEN--\":5:16   */\n      lt\n        /* \"--CODEGEN--\":2:4   */\n      iszero\n      tag_45\n      jumpi\n        /* \"--CODEGEN--\":29:30   */\n      0x00\n        /* \"--CODEGEN--\":26:27   */\n      dup1\n        /* \"--CODEGEN--\":19:31   */\n      revert\n        /* \"--CODEGEN--\":2:4   */\n    tag_45:\n        /* \"Sprint1.sol\":4201:4256  sha256(abi.encodePacked(cellHash,bytes32_TeamNo,nonce)) */\n      dup2\n      add\n      swap1\n      dup1\n      dup1\n      mload\n      swap1\n      0x20\n      add\n      swap1\n      swap3\n      swap2\n      swap1\n      pop\n      pop\n      pop\n        /* \"Sprint1.sol\":4193:4257  uint256(sha256(abi.encodePacked(cellHash,bytes32_TeamNo,nonce))) */\n      0x00\n      shr\n        /* \"Sprint1.sol\":4179:4257  int_newHash = uint256(sha256(abi.encodePacked(cellHash,bytes32_TeamNo,nonce))) */\n      swap1\n      pop\n        /* \"Sprint1.sol\":4277:4284  nonce++ */\n      dup6\n      dup1\n      0x01\n      add\n      swap7\n      pop\n      pop\n        /* \"Sprint1.sol\":4128:4308  while(int_cellHash > int_newHash){\r... */\n      jump(tag_39)\n    tag_40:\n        /* \"Sprint1.sol\":4446:4453  nonce-- */\n      dup6\n      dup1\n      0x01\n      swap1\n      sub\n      swap7\n      pop\n      pop\n        /* \"Sprint1.sol\":4080:4472  if(int_cellHash > int_newHash){\r... */\n    tag_38:\n        /* \"Sprint1.sol\":4509:4514  nonce */\n      dup6\n        /* \"Sprint1.sol\":4523:4528  nonce */\n      dup7\n        /* \"Sprint1.sol\":4515:4529  bytes32(nonce) */\n      0x00\n      shl\n        /* \"Sprint1.sol\":4530:4542  int_cellHash */\n      dup4\n        /* \"Sprint1.sol\":4543:4554  int_newHash */\n      dup4\n        /* \"Sprint1.sol\":4555:4558  pow */\n      dup11\n        /* \"Sprint1.sol\":4501:4559  return (nonce,bytes32(nonce),int_cellHash,int_newHash,pow) */\n      swap15\n      pop\n      swap15\n      pop\n      swap15\n      pop\n      swap15\n      pop\n      swap15\n      pop\n      pop\n      pop\n      pop\n      pop\n      pop\n      pop\n      pop\n      pop\n      pop\n      pop\n        /* \"Sprint1.sol\":3442:4568  function VM_Test_FindNonce(bytes32 hashOfCell,uint256 power) view public returns(uint256,bytes32,uint256,uint256,uint256){\r... */\n      swap3\n      swap6\n      pop\n      swap3\n      swap6\n      swap1\n      swap4\n      pop\n      jump\t// out\n        /* \"Sprint1.sol\":1685:1905  function arrangeContract() public returns(address){\r... */\n    tag_20:\n        /* \"Sprint1.sol\":1727:1734  address */\n      0x00\n        /* \"Sprint1.sol\":1760:1772  pc_interface */\n      0x02\n      0x00\n      swap1\n      sload\n      swap1\n      0x0100\n      exp\n      swap1\n      div\n      0xffffffffffffffffffffffffffffffffffffffff\n      and\n        /* \"Sprint1.sol\":1760:1790  pc_interface.setMyTeamContract */\n      0xffffffffffffffffffffffffffffffffffffffff\n      and\n      0x2a9c1512\n        /* \"Sprint1.sol\":1791:1796  myAdd */\n      0x01\n      0x00\n      swap1\n      sload\n      swap1\n      0x0100\n      exp\n      swap1\n      div\n      0xffffffffffffffffffffffffffffffffffffffff\n      and\n        /* \"Sprint1.sol\":1760:1797  pc_interface.setMyTeamContract(myAdd) */\n      mload(0x40)\n      dup3\n      0xffffffff\n      and\n      0xe0\n      shl\n      dup2\n      mstore\n      0x04\n      add\n      dup1\n      dup3\n      0xffffffffffffffffffffffffffffffffffffffff\n      and\n      0xffffffffffffffffffffffffffffffffffffffff\n      and\n      dup2\n      mstore\n      0x20\n      add\n      swap2\n      pop\n      pop\n      0x00\n      mload(0x40)\n      dup1\n      dup4\n      sub\n      dup2\n      0x00\n      dup8\n      dup1\n      extcodesize\n      iszero\n        /* \"--CODEGEN--\":8:17   */\n      dup1\n        /* \"--CODEGEN--\":5:7   */\n      iszero\n      tag_47\n      jumpi\n        /* \"--CODEGEN--\":30:31   */\n      0x00\n        /* \"--CODEGEN--\":27:28   */\n      dup1\n        /* \"--CODEGEN--\":20:32   */\n      revert\n        /* \"--CODEGEN--\":5:7   */\n    tag_47:\n        /* \"Sprint1.sol\":1760:1797  pc_interface.setMyTeamContract(myAdd) */\n      pop\n      gas\n      call\n      iszero\n        /* \"--CODEGEN--\":8:17   */\n      dup1\n        /* \"--CODEGEN--\":5:7   */\n      iszero\n      tag_48\n      jumpi\n        /* \"--CODEGEN--\":45:61   */\n      returndatasize\n        /* \"--CODEGEN--\":42:43   */\n      0x00\n        /* \"--CODEGEN--\":39:40   */\n      dup1\n        /* \"--CODEGEN--\":24:62   */\n      returndatacopy\n        /* \"--CODEGEN--\":77:93   */\n      returndatasize\n        /* \"--CODEGEN--\":74:75   */\n      0x00\n        /* \"--CODEGEN--\":67:94   */\n      revert\n        /* \"--CODEGEN--\":5:7   */\n    tag_48:\n        /* \"Sprint1.sol\":1760:1797  pc_interface.setMyTeamContract(myAdd) */\n      pop\n      pop\n      pop\n      pop\n        /* \"Sprint1.sol\":1811:1830  address teamAddress */\n      0x00\n        /* \"Sprint1.sol\":1833:1845  pc_interface */\n      0x02\n      0x00\n      swap1\n      sload\n      swap1\n      0x0100\n      exp\n      swap1\n      div\n      0xffffffffffffffffffffffffffffffffffffffff\n      and\n        /* \"Sprint1.sol\":1833:1863  pc_interface.getMyTeamContract */\n      0xffffffffffffffffffffffffffffffffffffffff\n      and\n      0x5e94a6a4\n        /* \"Sprint1.sol\":1833:1865  pc_interface.getMyTeamContract() */\n      mload(0x40)\n      dup2\n      0xffffffff\n      and\n      0xe0\n      shl\n      dup2\n      mstore\n      0x04\n      add\n      0x20\n      mload(0x40)\n      dup1\n      dup4\n      sub\n      dup2\n      dup7\n      dup1\n      extcodesize\n      iszero\n        /* \"--CODEGEN--\":8:17   */\n      dup1\n        /* \"--CODEGEN--\":5:7   */\n      iszero\n      tag_49\n      jumpi\n        /* \"--CODEGEN--\":30:31   */\n      0x00\n        /* \"--CODEGEN--\":27:28   */\n      dup1\n        /* \"--CODEGEN--\":20:32   */\n      revert\n        /* \"--CODEGEN--\":5:7   */\n    tag_49:\n        /* \"Sprint1.sol\":1833:1865  pc_interface.getMyTeamContract() */\n      pop\n      gas\n      staticcall\n      iszero\n        /* \"--CODEGEN--\":8:17   */\n      dup1\n        /* \"--CODEGEN--\":5:7   */\n      iszero\n      tag_50\n      jumpi\n        /* \"--CODEGEN--\":45:61   */\n      returndatasize\n        /* \"--CODEGEN--\":42:43   */\n      0x00\n        /* \"--CODEGEN--\":39:40   */\n      dup1\n        /* \"--CODEGEN--\":24:62   */\n      returndatacopy\n        /* \"--CODEGEN--\":77:93   */\n      returndatasize\n        /* \"--CODEGEN--\":74:75   */\n      0x00\n        /* \"--CODEGEN--\":67:94   */\n      revert\n        /* \"--CODEGEN--\":5:7   */\n    tag_50:\n        /* \"Sprint1.sol\":1833:1865  pc_interface.getMyTeamContract() */\n      pop\n      pop\n      pop\n      pop\n      mload(0x40)\n      returndatasize\n        /* \"--CODEGEN--\":13:15   */\n      0x20\n        /* \"--CODEGEN--\":8:11   */\n      dup2\n        /* \"--CODEGEN--\":5:16   */\n      lt\n        /* \"--CODEGEN--\":2:4   */\n      iszero\n      tag_51\n      jumpi\n        /* \"--CODEGEN--\":29:30   */\n      0x00\n        /* \"--CODEGEN--\":26:27   */\n      dup1\n        /* \"--CODEGEN--\":19:31   */\n      revert\n        /* \"--CODEGEN--\":2:4   */\n    tag_51:\n        /* \"Sprint1.sol\":1833:1865  pc_interface.getMyTeamContract() */\n      dup2\n      add\n      swap1\n      dup1\n      dup1\n      mload\n      swap1\n      0x20\n      add\n      swap1\n      swap3\n      swap2\n      swap1\n      pop\n      pop\n      pop\n        /* \"Sprint1.sol\":1811:1865  address teamAddress = pc_interface.getMyTeamContract() */\n      swap1\n      pop\n        /* \"Sprint1.sol\":1885:1896  teamAddress */\n      dup1\n        /* \"Sprint1.sol\":1878:1896  return teamAddress */\n      swap2\n      pop\n      pop\n        /* \"Sprint1.sol\":1685:1905  function arrangeContract() public returns(address){\r... */\n      swap1\n      jump\t// out\n        /* \"Sprint1.sol\":2139:3322  function findNonce(int x,int y)public view returns(uint256,bytes32,uint256,uint256,uint256){\r... */\n    tag_24:\n        /* \"Sprint1.sol\":2190:2197  uint256 */\n      0x00\n        /* \"Sprint1.sol\":2198:2205  bytes32 */\n      dup1\n        /* \"Sprint1.sol\":2206:2213  uint256 */\n      0x00\n        /* \"Sprint1.sol\":2214:2221  uint256 */\n      dup1\n        /* \"Sprint1.sol\":2222:2229  uint256 */\n      0x00\n        /* \"Sprint1.sol\":2245:2258  int256 teamNo */\n      dup1\n        /* \"Sprint1.sol\":2261:2273  pc_interface */\n      0x02\n      0x00\n      swap1\n      sload\n      swap1\n      0x0100\n      exp\n      swap1\n      div\n      0xffffffffffffffffffffffffffffffffffffffff\n      and\n        /* \"Sprint1.sol\":2261:2289  pc_interface.getMyTeamNumber */\n      0xffffffffffffffffffffffffffffffffffffffff\n      and\n      0xb2de2d40\n        /* \"Sprint1.sol\":2261:2291  pc_interface.getMyTeamNumber() */\n      mload(0x40)\n      dup2\n      0xffffffff\n      and\n      0xe0\n      shl\n      dup2\n      mstore\n      0x04\n      add\n      0x20\n      mload(0x40)\n      dup1\n      dup4\n      sub\n      dup2\n      dup7\n      dup1\n      extcodesize\n      iszero\n        /* \"--CODEGEN--\":8:17   */\n      dup1\n        /* \"--CODEGEN--\":5:7   */\n      iszero\n      tag_53\n      jumpi\n        /* \"--CODEGEN--\":30:31   */\n      0x00\n        /* \"--CODEGEN--\":27:28   */\n      dup1\n        /* \"--CODEGEN--\":20:32   */\n      revert\n        /* \"--CODEGEN--\":5:7   */\n    tag_53:\n        /* \"Sprint1.sol\":2261:2291  pc_interface.getMyTeamNumber() */\n      pop\n      gas\n      staticcall\n      iszero\n        /* \"--CODEGEN--\":8:17   */\n      dup1\n        /* \"--CODEGEN--\":5:7   */\n      iszero\n      tag_54\n      jumpi\n        /* \"--CODEGEN--\":45:61   */\n      returndatasize\n        /* \"--CODEGEN--\":42:43   */\n      0x00\n        /* \"--CODEGEN--\":39:40   */\n      dup1\n        /* \"--CODEGEN--\":24:62   */\n      returndatacopy\n        /* \"--CODEGEN--\":77:93   */\n      returndatasize\n        /* \"--CODEGEN--\":74:75   */\n      0x00\n        /* \"--CODEGEN--\":67:94   */\n      revert\n        /* \"--CODEGEN--\":5:7   */\n    tag_54:\n        /* \"Sprint1.sol\":2261:2291  pc_interface.getMyTeamNumber() */\n      pop\n      pop\n      pop\n      pop\n      mload(0x40)\n      returndatasize\n        /* \"--CODEGEN--\":13:15   */\n      0x20\n        /* \"--CODEGEN--\":8:11   */\n      dup2\n        /* \"--CODEGEN--\":5:16   */\n      lt\n        /* \"--CODEGEN--\":2:4   */\n      iszero\n      tag_55\n      jumpi\n        /* \"--CODEGEN--\":29:30   */\n      0x00\n        /* \"--CODEGEN--\":26:27   */\n      dup1\n        /* \"--CODEGEN--\":19:31   */\n      revert\n        /* \"--CODEGEN--\":2:4   */\n    tag_55:\n        /* \"Sprint1.sol\":2261:2291  pc_interface.getMyTeamNumber() */\n      dup2\n      add\n      swap1\n      dup1\n      dup1\n      mload\n      swap1\n      0x20\n      add\n      swap1\n      swap3\n      swap2\n      swap1\n      pop\n      pop\n      pop\n        /* \"Sprint1.sol\":2245:2291  int256 teamNo = pc_interface.getMyTeamNumber() */\n      swap1\n      pop\n        /* \"Sprint1.sol\":2304:2326  bytes32 bytes32_TeamNo */\n      0x00\n        /* \"Sprint1.sol\":2337:2343  teamNo */\n      dup2\n        /* \"Sprint1.sol\":2329:2344  bytes32(teamNo) */\n      0x00\n      shl\n        /* \"Sprint1.sol\":2304:2344  bytes32 bytes32_TeamNo = bytes32(teamNo) */\n      swap1\n      pop\n        /* \"Sprint1.sol\":2359:2376  bytes32  cellHash */\n      0x00\n        /* \"Sprint1.sol\":2379:2391  pc_interface */\n      0x02\n      0x00\n      swap1\n      sload\n      swap1\n      0x0100\n      exp\n      swap1\n      div\n      0xffffffffffffffffffffffffffffffffffffffff\n      and\n        /* \"Sprint1.sol\":2379:2403  pc_interface.getCellHash */\n      0xffffffffffffffffffffffffffffffffffffffff\n      and\n      0x35d45c1d\n        /* \"Sprint1.sol\":2404:2405  x */\n      dup12\n        /* \"Sprint1.sol\":2406:2407  y */\n      dup12\n        /* \"Sprint1.sol\":2379:2408  pc_interface.getCellHash(x,y) */\n      mload(0x40)\n      dup4\n      0xffffffff\n      and\n      0xe0\n      shl\n      dup2\n      mstore\n      0x04\n      add\n      dup1\n      dup4\n      dup2\n      mstore\n      0x20\n      add\n      dup3\n      dup2\n      mstore\n      0x20\n      add\n      swap3\n      pop\n      pop\n      pop\n      0x20\n      mload(0x40)\n      dup1\n      dup4\n      sub\n      dup2\n      dup7\n      dup1\n      extcodesize\n      iszero\n        /* \"--CODEGEN--\":8:17   */\n      dup1\n        /* \"--CODEGEN--\":5:7   */\n      iszero\n      tag_56\n      jumpi\n        /* \"--CODEGEN--\":30:31   */\n      0x00\n        /* \"--CODEGEN--\":27:28   */\n      dup1\n        /* \"--CODEGEN--\":20:32   */\n      revert\n        /* \"--CODEGEN--\":5:7   */\n    tag_56:\n        /* \"Sprint1.sol\":2379:2408  pc_interface.getCellHash(x,y) */\n      pop\n      gas\n      staticcall\n      iszero\n        /* \"--CODEGEN--\":8:17   */\n      dup1\n        /* \"--CODEGEN--\":5:7   */\n      iszero\n      tag_57\n      jumpi\n        /* \"--CODEGEN--\":45:61   */\n      returndatasize\n        /* \"--CODEGEN--\":42:43   */\n      0x00\n        /* \"--CODEGEN--\":39:40   */\n      dup1\n        /* \"--CODEGEN--\":24:62   */\n      returndatacopy\n        /* \"--CODEGEN--\":77:93   */\n      returndatasize\n        /* \"--CODEGEN--\":74:75   */\n      0x00\n        /* \"--CODEGEN--\":67:94   */\n      revert\n        /* \"--CODEGEN--\":5:7   */\n    tag_57:\n        /* \"Sprint1.sol\":2379:2408  pc_interface.getCellHash(x,y) */\n      pop\n      pop\n      pop\n      pop\n      mload(0x40)\n      returndatasize\n        /* \"--CODEGEN--\":13:15   */\n      0x20\n        /* \"--CODEGEN--\":8:11   */\n      dup2\n        /* \"--CODEGEN--\":5:16   */\n      lt\n        /* \"--CODEGEN--\":2:4   */\n      iszero\n      tag_58\n      jumpi\n        /* \"--CODEGEN--\":29:30   */\n      0x00\n        /* \"--CODEGEN--\":26:27   */\n      dup1\n        /* \"--CODEGEN--\":19:31   */\n      revert\n        /* \"--CODEGEN--\":2:4   */\n    tag_58:\n        /* \"Sprint1.sol\":2379:2408  pc_interface.getCellHash(x,y) */\n      dup2\n      add\n      swap1\n      dup1\n      dup1\n      mload\n      swap1\n      0x20\n      add\n      swap1\n      swap3\n      swap2\n      swap1\n      pop\n      pop\n      pop\n        /* \"Sprint1.sol\":2359:2408  bytes32  cellHash = pc_interface.getCellHash(x,y) */\n      swap1\n      pop\n        /* \"Sprint1.sol\":2421:2433  uint256  pow */\n      0x00\n        /* \"Sprint1.sol\":2444:2456  pc_interface */\n      0x02\n      0x00\n      swap1\n      sload\n      swap1\n      0x0100\n      exp\n      swap1\n      div\n      0xffffffffffffffffffffffffffffffffffffffff\n      and\n        /* \"Sprint1.sol\":2444:2469  pc_interface.getCellPower */\n      0xffffffffffffffffffffffffffffffffffffffff\n      and\n      0xe4db6446\n        /* \"Sprint1.sol\":2470:2471  x */\n      dup13\n        /* \"Sprint1.sol\":2472:2473  y */\n      dup13\n        /* \"Sprint1.sol\":2444:2474  pc_interface.getCellPower(x,y) */\n      mload(0x40)\n      dup4\n      0xffffffff\n      and\n      0xe0\n      shl\n      dup2\n      mstore\n      0x04\n      add\n      dup1\n      dup4\n      dup2\n      mstore\n      0x20\n      add\n      dup3\n      dup2\n      mstore\n      0x20\n      add\n      swap3\n      pop\n      pop\n      pop\n      0x20\n      mload(0x40)\n      dup1\n      dup4\n      sub\n      dup2\n      dup7\n      dup1\n      extcodesize\n      iszero\n        /* \"--CODEGEN--\":8:17   */\n      dup1\n        /* \"--CODEGEN--\":5:7   */\n      iszero\n      tag_59\n      jumpi\n        /* \"--CODEGEN--\":30:31   */\n      0x00\n        /* \"--CODEGEN--\":27:28   */\n      dup1\n        /* \"--CODEGEN--\":20:32   */\n      revert\n        /* \"--CODEGEN--\":5:7   */\n    tag_59:\n        /* \"Sprint1.sol\":2444:2474  pc_interface.getCellPower(x,y) */\n      pop\n      gas\n      staticcall\n      iszero\n        /* \"--CODEGEN--\":8:17   */\n      dup1\n        /* \"--CODEGEN--\":5:7   */\n      iszero\n      tag_60\n      jumpi\n        /* \"--CODEGEN--\":45:61   */\n      returndatasize\n        /* \"--CODEGEN--\":42:43   */\n      0x00\n        /* \"--CODEGEN--\":39:40   */\n      dup1\n        /* \"--CODEGEN--\":24:62   */\n      returndatacopy\n        /* \"--CODEGEN--\":77:93   */\n      returndatasize\n        /* \"--CODEGEN--\":74:75   */\n      0x00\n        /* \"--CODEGEN--\":67:94   */\n      revert\n        /* \"--CODEGEN--\":5:7   */\n    tag_60:\n        /* \"Sprint1.sol\":2444:2474  pc_interface.getCellPower(x,y) */\n      pop\n      pop\n      pop\n      pop\n      mload(0x40)\n      returndatasize\n        /* \"--CODEGEN--\":13:15   */\n      0x20\n        /* \"--CODEGEN--\":8:11   */\n      dup2\n        /* \"--CODEGEN--\":5:16   */\n      lt\n        /* \"--CODEGEN--\":2:4   */\n      iszero\n      tag_61\n      jumpi\n        /* \"--CODEGEN--\":29:30   */\n      0x00\n        /* \"--CODEGEN--\":26:27   */\n      dup1\n        /* \"--CODEGEN--\":19:31   */\n      revert\n        /* \"--CODEGEN--\":2:4   */\n    tag_61:\n        /* \"Sprint1.sol\":2444:2474  pc_interface.getCellPower(x,y) */\n      dup2\n      add\n      swap1\n      dup1\n      dup1\n      mload\n      swap1\n      0x20\n      add\n      swap1\n      swap3\n      swap2\n      swap1\n      pop\n      pop\n      pop\n        /* \"Sprint1.sol\":2421:2475  uint256  pow = uint256(pc_interface.getCellPower(x,y)) */\n      swap1\n      pop\n        /* \"Sprint1.sol\":2488:2499  uint  nonce */\n      0x00\n        /* \"Sprint1.sol\":2502:2503  1 */\n      0x01\n        /* \"Sprint1.sol\":2488:2503  uint  nonce = 1 */\n      swap1\n      pop\n        /* \"Sprint1.sol\":2517:2533  bytes32  newHash */\n      0x00\n        /* \"Sprint1.sol\":2536:2591  sha256(abi.encodePacked(cellHash,bytes32_TeamNo,nonce)) */\n      0x02\n        /* \"Sprint1.sol\":2560:2568  cellHash */\n      dup5\n        /* \"Sprint1.sol\":2569:2583  bytes32_TeamNo */\n      dup7\n        /* \"Sprint1.sol\":2584:2589  nonce */\n      dup5\n        /* \"Sprint1.sol\":2543:2590  abi.encodePacked(cellHash,bytes32_TeamNo,nonce) */\n      add(0x20, mload(0x40))\n      dup1\n      dup5\n      dup2\n      mstore\n      0x20\n      add\n      dup4\n      dup2\n      mstore\n      0x20\n      add\n      dup3\n      dup2\n      mstore\n      0x20\n      add\n      swap4\n      pop\n      pop\n      pop\n      pop\n      mload(0x40)\n        /* \"--CODEGEN--\":49:53   */\n      0x20\n        /* \"--CODEGEN--\":39:46   */\n      dup2\n        /* \"--CODEGEN--\":30:37   */\n      dup4\n        /* \"--CODEGEN--\":26:47   */\n      sub\n        /* \"--CODEGEN--\":22:54   */\n      sub\n        /* \"--CODEGEN--\":13:20   */\n      dup2\n        /* \"--CODEGEN--\":6:55   */\n      mstore\n        /* \"Sprint1.sol\":2543:2590  abi.encodePacked(cellHash,bytes32_TeamNo,nonce) */\n      swap1\n      0x40\n      mstore\n        /* \"Sprint1.sol\":2536:2591  sha256(abi.encodePacked(cellHash,bytes32_TeamNo,nonce)) */\n      mload(0x40)\n      dup1\n      dup3\n      dup1\n      mload\n      swap1\n      0x20\n      add\n      swap1\n      dup1\n      dup4\n      dup4\n        /* \"--CODEGEN--\":36:189   */\n    tag_62:\n        /* \"--CODEGEN--\":66:68   */\n      0x20\n        /* \"--CODEGEN--\":61:64   */\n      dup4\n        /* \"--CODEGEN--\":58:69   */\n      lt\n        /* \"--CODEGEN--\":36:189   */\n      tag_64\n      jumpi\n        /* \"--CODEGEN--\":182:185   */\n      dup1\n        /* \"--CODEGEN--\":176:186   */\n      mload\n        /* \"--CODEGEN--\":171:174   */\n      dup3\n        /* \"--CODEGEN--\":164:187   */\n      mstore\n        /* \"--CODEGEN--\":98:100   */\n      0x20\n        /* \"--CODEGEN--\":93:96   */\n      dup3\n        /* \"--CODEGEN--\":89:101   */\n      add\n        /* \"--CODEGEN--\":82:101   */\n      swap2\n      pop\n        /* \"--CODEGEN--\":123:125   */\n      0x20\n        /* \"--CODEGEN--\":118:121   */\n      dup2\n        /* \"--CODEGEN--\":114:126   */\n      add\n        /* \"--CODEGEN--\":107:126   */\n      swap1\n      pop\n        /* \"--CODEGEN--\":148:150   */\n      0x20\n        /* \"--CODEGEN--\":143:146   */\n      dup4\n        /* \"--CODEGEN--\":139:151   */\n      sub\n        /* \"--CODEGEN--\":132:151   */\n      swap3\n      pop\n        /* \"--CODEGEN--\":36:189   */\n      jump(tag_62)\n    tag_64:\n        /* \"--CODEGEN--\":274:275   */\n      0x01\n        /* \"--CODEGEN--\":267:270   */\n      dup4\n        /* \"--CODEGEN--\":263:265   */\n      0x20\n        /* \"--CODEGEN--\":259:271   */\n      sub\n        /* \"--CODEGEN--\":254:257   */\n      0x0100\n        /* \"--CODEGEN--\":250:272   */\n      exp\n        /* \"--CODEGEN--\":246:276   */\n      sub\n        /* \"--CODEGEN--\":315:319   */\n      dup1\n        /* \"--CODEGEN--\":311:320   */\n      not\n        /* \"--CODEGEN--\":305:308   */\n      dup3\n        /* \"--CODEGEN--\":299:309   */\n      mload\n        /* \"--CODEGEN--\":295:321   */\n      and\n        /* \"--CODEGEN--\":356:360   */\n      dup2\n        /* \"--CODEGEN--\":350:353   */\n      dup5\n        /* \"--CODEGEN--\":344:354   */\n      mload\n        /* \"--CODEGEN--\":340:361   */\n      and\n        /* \"--CODEGEN--\":389:396   */\n      dup1\n        /* \"--CODEGEN--\":380:387   */\n      dup3\n        /* \"--CODEGEN--\":377:397   */\n      or\n        /* \"--CODEGEN--\":372:375   */\n      dup6\n        /* \"--CODEGEN--\":365:398   */\n      mstore\n        /* \"--CODEGEN--\":3:402   */\n      pop\n      pop\n      pop\n        /* \"Sprint1.sol\":2536:2591  sha256(abi.encodePacked(cellHash,bytes32_TeamNo,nonce)) */\n      pop\n      pop\n      pop\n      swap1\n      pop\n      add\n      swap2\n      pop\n      pop\n      0x20\n      mload(0x40)\n      dup1\n      dup4\n      sub\n      dup2\n      dup6\n      gas\n      staticcall\n      iszero\n        /* \"--CODEGEN--\":8:17   */\n      dup1\n        /* \"--CODEGEN--\":5:7   */\n      iszero\n      tag_65\n      jumpi\n        /* \"--CODEGEN--\":45:61   */\n      returndatasize\n        /* \"--CODEGEN--\":42:43   */\n      0x00\n        /* \"--CODEGEN--\":39:40   */\n      dup1\n        /* \"--CODEGEN--\":24:62   */\n      returndatacopy\n        /* \"--CODEGEN--\":77:93   */\n      returndatasize\n        /* \"--CODEGEN--\":74:75   */\n      0x00\n        /* \"--CODEGEN--\":67:94   */\n      revert\n        /* \"--CODEGEN--\":5:7   */\n    tag_65:\n        /* \"Sprint1.sol\":2536:2591  sha256(abi.encodePacked(cellHash,bytes32_TeamNo,nonce)) */\n      pop\n      pop\n      pop\n      mload(0x40)\n      returndatasize\n        /* \"--CODEGEN--\":13:15   */\n      0x20\n        /* \"--CODEGEN--\":8:11   */\n      dup2\n        /* \"--CODEGEN--\":5:16   */\n      lt\n        /* \"--CODEGEN--\":2:4   */\n      iszero\n      tag_66\n      jumpi\n        /* \"--CODEGEN--\":29:30   */\n      0x00\n        /* \"--CODEGEN--\":26:27   */\n      dup1\n        /* \"--CODEGEN--\":19:31   */\n      revert\n        /* \"--CODEGEN--\":2:4   */\n    tag_66:\n        /* \"Sprint1.sol\":2536:2591  sha256(abi.encodePacked(cellHash,bytes32_TeamNo,nonce)) */\n      dup2\n      add\n      swap1\n      dup1\n      dup1\n      mload\n      swap1\n      0x20\n      add\n      swap1\n      swap3\n      swap2\n      swap1\n      pop\n      pop\n      pop\n        /* \"Sprint1.sol\":2517:2591  bytes32  newHash = sha256(abi.encodePacked(cellHash,bytes32_TeamNo,nonce)) */\n      swap1\n      pop\n        /* \"Sprint1.sol\":2606:2626  uint  multiplication */\n      0x00\n        /* \"Sprint1.sol\":2647:2650  pow */\n      dup4\n        /* \"Sprint1.sol\":2644:2645  2 */\n      0x02\n        /* \"Sprint1.sol\":2644:2650  2**pow */\n      exp\n        /* \"Sprint1.sol\":2634:2641  newHash */\n      dup3\n        /* \"Sprint1.sol\":2629:2642  uint(newHash) */\n      0x00\n      shr\n        /* \"Sprint1.sol\":2629:2651  uint(newHash)*(2**pow) */\n      mul\n        /* \"Sprint1.sol\":2606:2651  uint  multiplication = uint(newHash)*(2**pow) */\n      swap1\n      pop\n        /* \"Sprint1.sol\":2664:2682  bytes32  finalHash */\n      0x00\n        /* \"Sprint1.sol\":2693:2707  multiplication */\n      dup2\n        /* \"Sprint1.sol\":2685:2708  bytes32(multiplication) */\n      0x00\n      shl\n        /* \"Sprint1.sol\":2664:2708  bytes32  finalHash = bytes32(multiplication) */\n      swap1\n      pop\n        /* \"Sprint1.sol\":2723:2743  uint256 int_cellHash */\n      0x00\n        /* \"Sprint1.sol\":2754:2762  cellHash */\n      dup7\n        /* \"Sprint1.sol\":2746:2763  uint256(cellHash) */\n      0x00\n      shr\n        /* \"Sprint1.sol\":2723:2763  uint256 int_cellHash = uint256(cellHash) */\n      swap1\n      pop\n        /* \"Sprint1.sol\":2776:2795  uint256 int_newHash */\n      0x00\n        /* \"Sprint1.sol\":2806:2813  newHash */\n      dup5\n        /* \"Sprint1.sol\":2798:2814  uint256(newHash) */\n      0x00\n      shr\n        /* \"Sprint1.sol\":2776:2814  uint256 int_newHash = uint256(newHash) */\n      swap1\n      pop\n        /* \"Sprint1.sol\":2847:2858  int_newHash */\n      dup1\n        /* \"Sprint1.sol\":2832:2844  int_cellHash */\n      dup3\n        /* \"Sprint1.sol\":2832:2858  int_cellHash > int_newHash */\n      gt\n        /* \"Sprint1.sol\":2829:3221  if(int_cellHash > int_newHash){\r... */\n      iszero\n      tag_67\n      jumpi\n        /* \"Sprint1.sol\":2877:3057  while(int_cellHash > int_newHash){\r... */\n    tag_68:\n        /* \"Sprint1.sol\":2898:2909  int_newHash */\n      dup1\n        /* \"Sprint1.sol\":2883:2895  int_cellHash */\n      dup3\n        /* \"Sprint1.sol\":2883:2909  int_cellHash > int_newHash */\n      gt\n        /* \"Sprint1.sol\":2877:3057  while(int_cellHash > int_newHash){\r... */\n      iszero\n      tag_69\n      jumpi\n        /* \"Sprint1.sol\":2950:3005  sha256(abi.encodePacked(cellHash,bytes32_TeamNo,nonce)) */\n      0x02\n        /* \"Sprint1.sol\":2974:2982  cellHash */\n      dup9\n        /* \"Sprint1.sol\":2983:2997  bytes32_TeamNo */\n      dup11\n        /* \"Sprint1.sol\":2998:3003  nonce */\n      dup9\n        /* \"Sprint1.sol\":2957:3004  abi.encodePacked(cellHash,bytes32_TeamNo,nonce) */\n      add(0x20, mload(0x40))\n      dup1\n      dup5\n      dup2\n      mstore\n      0x20\n      add\n      dup4\n      dup2\n      mstore\n      0x20\n      add\n      dup3\n      dup2\n      mstore\n      0x20\n      add\n      swap4\n      pop\n      pop\n      pop\n      pop\n      mload(0x40)\n        /* \"--CODEGEN--\":49:53   */\n      0x20\n        /* \"--CODEGEN--\":39:46   */\n      dup2\n        /* \"--CODEGEN--\":30:37   */\n      dup4\n        /* \"--CODEGEN--\":26:47   */\n      sub\n        /* \"--CODEGEN--\":22:54   */\n      sub\n        /* \"--CODEGEN--\":13:20   */\n      dup2\n        /* \"--CODEGEN--\":6:55   */\n      mstore\n        /* \"Sprint1.sol\":2957:3004  abi.encodePacked(cellHash,bytes32_TeamNo,nonce) */\n      swap1\n      0x40\n      mstore\n        /* \"Sprint1.sol\":2950:3005  sha256(abi.encodePacked(cellHash,bytes32_TeamNo,nonce)) */\n      mload(0x40)\n      dup1\n      dup3\n      dup1\n      mload\n      swap1\n      0x20\n      add\n      swap1\n      dup1\n      dup4\n      dup4\n        /* \"--CODEGEN--\":36:189   */\n    tag_70:\n        /* \"--CODEGEN--\":66:68   */\n      0x20\n        /* \"--CODEGEN--\":61:64   */\n      dup4\n        /* \"--CODEGEN--\":58:69   */\n      lt\n        /* \"--CODEGEN--\":36:189   */\n      tag_72\n      jumpi\n        /* \"--CODEGEN--\":182:185   */\n      dup1\n        /* \"--CODEGEN--\":176:186   */\n      mload\n        /* \"--CODEGEN--\":171:174   */\n      dup3\n        /* \"--CODEGEN--\":164:187   */\n      mstore\n        /* \"--CODEGEN--\":98:100   */\n      0x20\n        /* \"--CODEGEN--\":93:96   */\n      dup3\n        /* \"--CODEGEN--\":89:101   */\n      add\n        /* \"--CODEGEN--\":82:101   */\n      swap2\n      pop\n        /* \"--CODEGEN--\":123:125   */\n      0x20\n        /* \"--CODEGEN--\":118:121   */\n      dup2\n        /* \"--CODEGEN--\":114:126   */\n      add\n        /* \"--CODEGEN--\":107:126   */\n      swap1\n      pop\n        /* \"--CODEGEN--\":148:150   */\n      0x20\n        /* \"--CODEGEN--\":143:146   */\n      dup4\n        /* \"--CODEGEN--\":139:151   */\n      sub\n        /* \"--CODEGEN--\":132:151   */\n      swap3\n      pop\n        /* \"--CODEGEN--\":36:189   */\n      jump(tag_70)\n    tag_72:\n        /* \"--CODEGEN--\":274:275   */\n      0x01\n        /* \"--CODEGEN--\":267:270   */\n      dup4\n        /* \"--CODEGEN--\":263:265   */\n      0x20\n        /* \"--CODEGEN--\":259:271   */\n      sub\n        /* \"--CODEGEN--\":254:257   */\n      0x0100\n        /* \"--CODEGEN--\":250:272   */\n      exp\n        /* \"--CODEGEN--\":246:276   */\n      sub\n        /* \"--CODEGEN--\":315:319   */\n      dup1\n        /* \"--CODEGEN--\":311:320   */\n      not\n        /* \"--CODEGEN--\":305:308   */\n      dup3\n        /* \"--CODEGEN--\":299:309   */\n      mload\n        /* \"--CODEGEN--\":295:321   */\n      and\n        /* \"--CODEGEN--\":356:360   */\n      dup2\n        /* \"--CODEGEN--\":350:353   */\n      dup5\n        /* \"--CODEGEN--\":344:354   */\n      mload\n        /* \"--CODEGEN--\":340:361   */\n      and\n        /* \"--CODEGEN--\":389:396   */\n      dup1\n        /* \"--CODEGEN--\":380:387   */\n      dup3\n        /* \"--CODEGEN--\":377:397   */\n      or\n        /* \"--CODEGEN--\":372:375   */\n      dup6\n        /* \"--CODEGEN--\":365:398   */\n      mstore\n        /* \"--CODEGEN--\":3:402   */\n      pop\n      pop\n      pop\n        /* \"Sprint1.sol\":2950:3005  sha256(abi.encodePacked(cellHash,bytes32_TeamNo,nonce)) */\n      pop\n      pop\n      pop\n      swap1\n      pop\n      add\n      swap2\n      pop\n      pop\n      0x20\n      mload(0x40)\n      dup1\n      dup4\n      sub\n      dup2\n      dup6\n      gas\n      staticcall\n      iszero\n        /* \"--CODEGEN--\":8:17   */\n      dup1\n        /* \"--CODEGEN--\":5:7   */\n      iszero\n      tag_73\n      jumpi\n        /* \"--CODEGEN--\":45:61   */\n      returndatasize\n        /* \"--CODEGEN--\":42:43   */\n      0x00\n        /* \"--CODEGEN--\":39:40   */\n      dup1\n        /* \"--CODEGEN--\":24:62   */\n      returndatacopy\n        /* \"--CODEGEN--\":77:93   */\n      returndatasize\n        /* \"--CODEGEN--\":74:75   */\n      0x00\n        /* \"--CODEGEN--\":67:94   */\n      revert\n        /* \"--CODEGEN--\":5:7   */\n    tag_73:\n        /* \"Sprint1.sol\":2950:3005  sha256(abi.encodePacked(cellHash,bytes32_TeamNo,nonce)) */\n      pop\n      pop\n      pop\n      mload(0x40)\n      returndatasize\n        /* \"--CODEGEN--\":13:15   */\n      0x20\n        /* \"--CODEGEN--\":8:11   */\n      dup2\n        /* \"--CODEGEN--\":5:16   */\n      lt\n        /* \"--CODEGEN--\":2:4   */\n      iszero\n      tag_74\n      jumpi\n        /* \"--CODEGEN--\":29:30   */\n      0x00\n        /* \"--CODEGEN--\":26:27   */\n      dup1\n        /* \"--CODEGEN--\":19:31   */\n      revert\n        /* \"--CODEGEN--\":2:4   */\n    tag_74:\n        /* \"Sprint1.sol\":2950:3005  sha256(abi.encodePacked(cellHash,bytes32_TeamNo,nonce)) */\n      dup2\n      add\n      swap1\n      dup1\n      dup1\n      mload\n      swap1\n      0x20\n      add\n      swap1\n      swap3\n      swap2\n      swap1\n      pop\n      pop\n      pop\n        /* \"Sprint1.sol\":2942:3006  uint256(sha256(abi.encodePacked(cellHash,bytes32_TeamNo,nonce))) */\n      0x00\n      shr\n        /* \"Sprint1.sol\":2928:3006  int_newHash = uint256(sha256(abi.encodePacked(cellHash,bytes32_TeamNo,nonce))) */\n      swap1\n      pop\n        /* \"Sprint1.sol\":3026:3033  nonce++ */\n      dup6\n      dup1\n      0x01\n      add\n      swap7\n      pop\n      pop\n        /* \"Sprint1.sol\":2877:3057  while(int_cellHash > int_newHash){\r... */\n      jump(tag_68)\n    tag_69:\n        /* \"Sprint1.sol\":3195:3202  nonce-- */\n      dup6\n      dup1\n      0x01\n      swap1\n      sub\n      swap7\n      pop\n      pop\n        /* \"Sprint1.sol\":2829:3221  if(int_cellHash > int_newHash){\r... */\n    tag_67:\n        /* \"Sprint1.sol\":3258:3263  nonce */\n      dup6\n        /* \"Sprint1.sol\":3272:3277  nonce */\n      dup7\n        /* \"Sprint1.sol\":3264:3278  bytes32(nonce) */\n      0x00\n      shl\n        /* \"Sprint1.sol\":3279:3291  int_cellHash */\n      dup4\n        /* \"Sprint1.sol\":3292:3303  int_newHash */\n      dup4\n        /* \"Sprint1.sol\":3304:3307  pow */\n      dup11\n        /* \"Sprint1.sol\":3250:3308  return (nonce,bytes32(nonce),int_cellHash,int_newHash,pow) */\n      swap15\n      pop\n      swap15\n      pop\n      swap15\n      pop\n      swap15\n      pop\n      swap15\n      pop\n      pop\n      pop\n      pop\n      pop\n      pop\n      pop\n      pop\n      pop\n      pop\n      pop\n        /* \"Sprint1.sol\":2139:3322  function findNonce(int x,int y)public view returns(uint256,bytes32,uint256,uint256,uint256){\r... */\n      swap3\n      swap6\n      pop\n      swap3\n      swap6\n      swap1\n      swap4\n      pop\n      jump\t// out\n        /* \"Sprint1.sol\":4577:4724  function captureCell(int x, int y,address payable reciever) payable public{\r... */\n    tag_27:\n        /* \"Sprint1.sol\":4676:4684  reciever */\n      dup1\n        /* \"Sprint1.sol\":4676:4693  reciever.transfer */\n      0xffffffffffffffffffffffffffffffffffffffff\n      and\n        /* \"Sprint1.sol\":4676:4704  reciever.transfer(0.1 ether) */\n      0x08fc\n        /* \"Sprint1.sol\":4694:4703  0.1 ether */\n      0x016345785d8a0000\n        /* \"Sprint1.sol\":4676:4704  reciever.transfer(0.1 ether) */\n      swap1\n      dup2\n      iszero\n      mul\n      swap1\n      mload(0x40)\n      0x00\n      mload(0x40)\n      dup1\n      dup4\n      sub\n      dup2\n      dup6\n      dup9\n      dup9\n      call\n      swap4\n      pop\n      pop\n      pop\n      pop\n      iszero\n        /* \"--CODEGEN--\":8:17   */\n      dup1\n        /* \"--CODEGEN--\":5:7   */\n      iszero\n      tag_76\n      jumpi\n        /* \"--CODEGEN--\":45:61   */\n      returndatasize\n        /* \"--CODEGEN--\":42:43   */\n      0x00\n        /* \"--CODEGEN--\":39:40   */\n      dup1\n        /* \"--CODEGEN--\":24:62   */\n      returndatacopy\n        /* \"--CODEGEN--\":77:93   */\n      returndatasize\n        /* \"--CODEGEN--\":74:75   */\n      0x00\n        /* \"--CODEGEN--\":67:94   */\n      revert\n        /* \"--CODEGEN--\":5:7   */\n    tag_76:\n        /* \"Sprint1.sol\":4676:4704  reciever.transfer(0.1 ether) */\n      pop\n        /* \"Sprint1.sol\":4577:4724  function captureCell(int x, int y,address payable reciever) payable public{\r... */\n      pop\n      pop\n      pop\n      jump\t// out\n\n    auxdata: 0xa265627a7a72315820a2583cfa3eea3d233bfa5a2e41c2e3abd1d8d4f478bc2120492f1062589a82e264736f6c63430005110032\n}\n",
				"bytecode": {
					"linkReferences": {},
					"object": "608060405273a7c40d644bdb571f98d72a08af2a1fb4ab4f24fe6000806101000a81548173ffffffffffffffffffffffffffffffffffffffff021916908373ffffffffffffffffffffffffffffffffffffffff1602179055507306d99001c37c88f996f629698c822f19db68388d600160006101000a81548173ffffffffffffffffffffffffffffffffffffffff021916908373ffffffffffffffffffffffffffffffffffffffff1602179055506000809054906101000a900473ffffffffffffffffffffffffffffffffffffffff16600260006101000a81548173ffffffffffffffffffffffffffffffffffffffff021916908373ffffffffffffffffffffffffffffffffffffffff16021790555061011d61016f60201b60201c565b600360006101000a81548173ffffffffffffffffffffffffffffffffffffffff021916908373ffffffffffffffffffffffffffffffffffffffff16021790555034801561016957600080fd5b506102fa565b6000600260009054906101000a900473ffffffffffffffffffffffffffffffffffffffff1673ffffffffffffffffffffffffffffffffffffffff16632a9c1512600160009054906101000a900473ffffffffffffffffffffffffffffffffffffffff166040518263ffffffff1660e01b8152600401808273ffffffffffffffffffffffffffffffffffffffff1673ffffffffffffffffffffffffffffffffffffffff168152602001915050600060405180830381600087803b15801561023457600080fd5b505af1158015610248573d6000803e3d6000fd5b505050506000600260009054906101000a900473ffffffffffffffffffffffffffffffffffffffff1673ffffffffffffffffffffffffffffffffffffffff16635e94a6a46040518163ffffffff1660e01b815260040160206040518083038186803b1580156102b657600080fd5b505afa1580156102ca573d6000803e3d6000fd5b505050506040513d60208110156102e057600080fd5b810190808051906020019092919050505090508091505090565b610bdf806103096000396000f3fe6080604052600436106100555760003560e01c8063045bbbb21461005a5780630cd9a64d1461008557806330a6e63d146100dc5780636881e114146101515780637ba334ef146101a8578063cf2b96bf1461021d575b600080fd5b34801561006657600080fd5b5061006f610275565b6040518082815260200191505060405180910390f35b34801561009157600080fd5b5061009a610324565b604051808273ffffffffffffffffffffffffffffffffffffffff1673ffffffffffffffffffffffffffffffffffffffff16815260200191505060405180910390f35b3480156100e857600080fd5b5061011f600480360360408110156100ff57600080fd5b81019080803590602001909291908035906020019092919050505061034a565b604051808681526020018581526020018481526020018381526020018281526020019550505050505060405180910390f35b34801561015d57600080fd5b50610166610585565b604051808273ffffffffffffffffffffffffffffffffffffffff1673ffffffffffffffffffffffffffffffffffffffff16815260200191505060405180910390f35b3480156101b457600080fd5b506101eb600480360360408110156101cb57600080fd5b810190808035906020019092919080359060200190929190505050610710565b604051808681526020018581526020018481526020018381526020018281526020019550505050505060405180910390f35b6102736004803603606081101561023357600080fd5b810190808035906020019092919080359060200190929190803573ffffffffffffffffffffffffffffffffffffffff169060200190929190505050610b56565b005b600080600260009054906101000a900473ffffffffffffffffffffffffffffffffffffffff1673ffffffffffffffffffffffffffffffffffffffff1663b2de2d406040518163ffffffff1660e01b815260040160206040518083038186803b1580156102e057600080fd5b505afa1580156102f4573d6000803e3d6000fd5b505050506040513d602081101561030a57600080fd5b810190808051906020019092919050505090508091505090565b600360009054906101000a900473ffffffffffffffffffffffffffffffffffffffff1681565b6000806000806000806005905060008160001b905060008990506000899050600060019050600060028486846040516020018084815260200183815260200182815260200193505050506040516020818303038152906040526040518082805190602001908083835b602083106103d657805182526020820191506020810190506020830392506103b3565b6001836020036101000a038019825116818451168082178552505050505050905001915050602060405180830381855afa158015610418573d6000803e3d6000fd5b5050506040513d602081101561042d57600080fd5b8101908080519060200190929190505050905060008360020a8260001c02905060008160001b905060008660001c905060008460001c90508082111561055f575b80821115610555576002888a886040516020018084815260200183815260200182815260200193505050506040516020818303038152906040526040518082805190602001908083835b602083106104db57805182526020820191506020810190506020830392506104b8565b6001836020036101000a038019825116818451168082178552505050505050905001915050602060405180830381855afa15801561051d573d6000803e3d6000fd5b5050506040513d602081101561053257600080fd5b810190808051906020019092919050505060001c9050858060010196505061046e565b8580600190039650505b858660001b83838a9e509e509e509e509e50505050505050505050509295509295909350565b6000600260009054906101000a900473ffffffffffffffffffffffffffffffffffffffff1673ffffffffffffffffffffffffffffffffffffffff16632a9c1512600160009054906101000a900473ffffffffffffffffffffffffffffffffffffffff166040518263ffffffff1660e01b8152600401808273ffffffffffffffffffffffffffffffffffffffff1673ffffffffffffffffffffffffffffffffffffffff168152602001915050600060405180830381600087803b15801561064a57600080fd5b505af115801561065e573d6000803e3d6000fd5b505050506000600260009054906101000a900473ffffffffffffffffffffffffffffffffffffffff1673ffffffffffffffffffffffffffffffffffffffff16635e94a6a46040518163ffffffff1660e01b815260040160206040518083038186803b1580156106cc57600080fd5b505afa1580156106e0573d6000803e3d6000fd5b505050506040513d60208110156106f657600080fd5b810190808051906020019092919050505090508091505090565b600080600080600080600260009054906101000a900473ffffffffffffffffffffffffffffffffffffffff1673ffffffffffffffffffffffffffffffffffffffff1663b2de2d406040518163ffffffff1660e01b815260040160206040518083038186803b15801561078157600080fd5b505afa158015610795573d6000803e3d6000fd5b505050506040513d60208110156107ab57600080fd5b8101908080519060200190929190505050905060008160001b90506000600260009054906101000a900473ffffffffffffffffffffffffffffffffffffffff1673ffffffffffffffffffffffffffffffffffffffff166335d45c1d8b8b6040518363ffffffff1660e01b8152600401808381526020018281526020019250505060206040518083038186803b15801561084357600080fd5b505afa158015610857573d6000803e3d6000fd5b505050506040513d602081101561086d57600080fd5b810190808051906020019092919050505090506000600260009054906101000a900473ffffffffffffffffffffffffffffffffffffffff1673ffffffffffffffffffffffffffffffffffffffff1663e4db64468c8c6040518363ffffffff1660e01b8152600401808381526020018281526020019250505060206040518083038186803b1580156108fd57600080fd5b505afa158015610911573d6000803e3d6000fd5b505050506040513d602081101561092757600080fd5b81019080805190602001909291905050509050600060019050600060028486846040516020018084815260200183815260200182815260200193505050506040516020818303038152906040526040518082805190602001908083835b602083106109a75780518252602082019150602081019050602083039250610984565b6001836020036101000a038019825116818451168082178552505050505050905001915050602060405180830381855afa1580156109e9573d6000803e3d6000fd5b5050506040513d60208110156109fe57600080fd5b8101908080519060200190929190505050905060008360020a8260001c02905060008160001b905060008660001c905060008460001c905080821115610b30575b80821115610b26576002888a886040516020018084815260200183815260200182815260200193505050506040516020818303038152906040526040518082805190602001908083835b60208310610aac5780518252602082019150602081019050602083039250610a89565b6001836020036101000a038019825116818451168082178552505050505050905001915050602060405180830381855afa158015610aee573d6000803e3d6000fd5b5050506040513d6020811015610b0357600080fd5b810190808051906020019092919050505060001c90508580600101965050610a3f565b8580600190039650505b858660001b83838a9e509e509e509e509e50505050505050505050509295509295909350565b8073ffffffffffffffffffffffffffffffffffffffff166108fc67016345785d8a00009081150290604051600060405180830381858888f19350505050158015610ba4573d6000803e3d6000fd5b5050505056fea265627a7a72315820a2583cfa3eea3d233bfa5a2e41c2e3abd1d8d4f478bc2120492f1062589a82e264736f6c63430005110032",
					"opcodes": "PUSH1 0x80 PUSH1 0x40 MSTORE PUSH20 0xA7C40D644BDB571F98D72A08AF2A1FB4AB4F24FE PUSH1 0x0 DUP1 PUSH2 0x100 EXP DUP2 SLOAD DUP2 PUSH20 0xFFFFFFFFFFFFFFFFFFFFFFFFFFFFFFFFFFFFFFFF MUL NOT AND SWAP1 DUP4 PUSH20 0xFFFFFFFFFFFFFFFFFFFFFFFFFFFFFFFFFFFFFFFF AND MUL OR SWAP1 SSTORE POP PUSH20 0x6D99001C37C88F996F629698C822F19DB68388D PUSH1 0x1 PUSH1 0x0 PUSH2 0x100 EXP DUP2 SLOAD DUP2 PUSH20 0xFFFFFFFFFFFFFFFFFFFFFFFFFFFFFFFFFFFFFFFF MUL NOT AND SWAP1 DUP4 PUSH20 0xFFFFFFFFFFFFFFFFFFFFFFFFFFFFFFFFFFFFFFFF AND MUL OR SWAP1 SSTORE POP PUSH1 0x0 DUP1 SWAP1 SLOAD SWAP1 PUSH2 0x100 EXP SWAP1 DIV PUSH20 0xFFFFFFFFFFFFFFFFFFFFFFFFFFFFFFFFFFFFFFFF AND PUSH1 0x2 PUSH1 0x0 PUSH2 0x100 EXP DUP2 SLOAD DUP2 PUSH20 0xFFFFFFFFFFFFFFFFFFFFFFFFFFFFFFFFFFFFFFFF MUL NOT AND SWAP1 DUP4 PUSH20 0xFFFFFFFFFFFFFFFFFFFFFFFFFFFFFFFFFFFFFFFF AND MUL OR SWAP1 SSTORE POP PUSH2 0x11D PUSH2 0x16F PUSH1 0x20 SHL PUSH1 0x20 SHR JUMP JUMPDEST PUSH1 0x3 PUSH1 0x0 PUSH2 0x100 EXP DUP2 SLOAD DUP2 PUSH20 0xFFFFFFFFFFFFFFFFFFFFFFFFFFFFFFFFFFFFFFFF MUL NOT AND SWAP1 DUP4 PUSH20 0xFFFFFFFFFFFFFFFFFFFFFFFFFFFFFFFFFFFFFFFF AND MUL OR SWAP1 SSTORE POP CALLVALUE DUP1 ISZERO PUSH2 0x169 JUMPI PUSH1 0x0 DUP1 REVERT JUMPDEST POP PUSH2 0x2FA JUMP JUMPDEST PUSH1 0x0 PUSH1 0x2 PUSH1 0x0 SWAP1 SLOAD SWAP1 PUSH2 0x100 EXP SWAP1 DIV PUSH20 0xFFFFFFFFFFFFFFFFFFFFFFFFFFFFFFFFFFFFFFFF AND PUSH20 0xFFFFFFFFFFFFFFFFFFFFFFFFFFFFFFFFFFFFFFFF AND PUSH4 0x2A9C1512 PUSH1 0x1 PUSH1 0x0 SWAP1 SLOAD SWAP1 PUSH2 0x100 EXP SWAP1 DIV PUSH20 0xFFFFFFFFFFFFFFFFFFFFFFFFFFFFFFFFFFFFFFFF AND PUSH1 0x40 MLOAD DUP3 PUSH4 0xFFFFFFFF AND PUSH1 0xE0 SHL DUP2 MSTORE PUSH1 0x4 ADD DUP1 DUP3 PUSH20 0xFFFFFFFFFFFFFFFFFFFFFFFFFFFFFFFFFFFFFFFF AND PUSH20 0xFFFFFFFFFFFFFFFFFFFFFFFFFFFFFFFFFFFFFFFF AND DUP2 MSTORE PUSH1 0x20 ADD SWAP2 POP POP PUSH1 0x0 PUSH1 0x40 MLOAD DUP1 DUP4 SUB DUP2 PUSH1 0x0 DUP8 DUP1 EXTCODESIZE ISZERO DUP1 ISZERO PUSH2 0x234 JUMPI PUSH1 0x0 DUP1 REVERT JUMPDEST POP GAS CALL ISZERO DUP1 ISZERO PUSH2 0x248 JUMPI RETURNDATASIZE PUSH1 0x0 DUP1 RETURNDATACOPY RETURNDATASIZE PUSH1 0x0 REVERT JUMPDEST POP POP POP POP PUSH1 0x0 PUSH1 0x2 PUSH1 0x0 SWAP1 SLOAD SWAP1 PUSH2 0x100 EXP SWAP1 DIV PUSH20 0xFFFFFFFFFFFFFFFFFFFFFFFFFFFFFFFFFFFFFFFF AND PUSH20 0xFFFFFFFFFFFFFFFFFFFFFFFFFFFFFFFFFFFFFFFF AND PUSH4 0x5E94A6A4 PUSH1 0x40 MLOAD DUP2 PUSH4 0xFFFFFFFF AND PUSH1 0xE0 SHL DUP2 MSTORE PUSH1 0x4 ADD PUSH1 0x20 PUSH1 0x40 MLOAD DUP1 DUP4 SUB DUP2 DUP7 DUP1 EXTCODESIZE ISZERO DUP1 ISZERO PUSH2 0x2B6 JUMPI PUSH1 0x0 DUP1 REVERT JUMPDEST POP GAS STATICCALL ISZERO DUP1 ISZERO PUSH2 0x2CA JUMPI RETURNDATASIZE PUSH1 0x0 DUP1 RETURNDATACOPY RETURNDATASIZE PUSH1 0x0 REVERT JUMPDEST POP POP POP POP PUSH1 0x40 MLOAD RETURNDATASIZE PUSH1 0x20 DUP2 LT ISZERO PUSH2 0x2E0 JUMPI PUSH1 0x0 DUP1 REVERT JUMPDEST DUP2 ADD SWAP1 DUP1 DUP1 MLOAD SWAP1 PUSH1 0x20 ADD SWAP1 SWAP3 SWAP2 SWAP1 POP POP POP SWAP1 POP DUP1 SWAP2 POP POP SWAP1 JUMP JUMPDEST PUSH2 0xBDF DUP1 PUSH2 0x309 PUSH1 0x0 CODECOPY PUSH1 0x0 RETURN INVALID PUSH1 0x80 PUSH1 0x40 MSTORE PUSH1 0x4 CALLDATASIZE LT PUSH2 0x55 JUMPI PUSH1 0x0 CALLDATALOAD PUSH1 0xE0 SHR DUP1 PUSH4 0x45BBBB2 EQ PUSH2 0x5A JUMPI DUP1 PUSH4 0xCD9A64D EQ PUSH2 0x85 JUMPI DUP1 PUSH4 0x30A6E63D EQ PUSH2 0xDC JUMPI DUP1 PUSH4 0x6881E114 EQ PUSH2 0x151 JUMPI DUP1 PUSH4 0x7BA334EF EQ PUSH2 0x1A8 JUMPI DUP1 PUSH4 0xCF2B96BF EQ PUSH2 0x21D JUMPI JUMPDEST PUSH1 0x0 DUP1 REVERT JUMPDEST CALLVALUE DUP1 ISZERO PUSH2 0x66 JUMPI PUSH1 0x0 DUP1 REVERT JUMPDEST POP PUSH2 0x6F PUSH2 0x275 JUMP JUMPDEST PUSH1 0x40 MLOAD DUP1 DUP3 DUP2 MSTORE PUSH1 0x20 ADD SWAP2 POP POP PUSH1 0x40 MLOAD DUP1 SWAP2 SUB SWAP1 RETURN JUMPDEST CALLVALUE DUP1 ISZERO PUSH2 0x91 JUMPI PUSH1 0x0 DUP1 REVERT JUMPDEST POP PUSH2 0x9A PUSH2 0x324 JUMP JUMPDEST PUSH1 0x40 MLOAD DUP1 DUP3 PUSH20 0xFFFFFFFFFFFFFFFFFFFFFFFFFFFFFFFFFFFFFFFF AND PUSH20 0xFFFFFFFFFFFFFFFFFFFFFFFFFFFFFFFFFFFFFFFF AND DUP2 MSTORE PUSH1 0x20 ADD SWAP2 POP POP PUSH1 0x40 MLOAD DUP1 SWAP2 SUB SWAP1 RETURN JUMPDEST CALLVALUE DUP1 ISZERO PUSH2 0xE8 JUMPI PUSH1 0x0 DUP1 REVERT JUMPDEST POP PUSH2 0x11F PUSH1 0x4 DUP1 CALLDATASIZE SUB PUSH1 0x40 DUP2 LT ISZERO PUSH2 0xFF JUMPI PUSH1 0x0 DUP1 REVERT JUMPDEST DUP2 ADD SWAP1 DUP1 DUP1 CALLDATALOAD SWAP1 PUSH1 0x20 ADD SWAP1 SWAP3 SWAP2 SWAP1 DUP1 CALLDATALOAD SWAP1 PUSH1 0x20 ADD SWAP1 SWAP3 SWAP2 SWAP1 POP POP POP PUSH2 0x34A JUMP JUMPDEST PUSH1 0x40 MLOAD DUP1 DUP7 DUP2 MSTORE PUSH1 0x20 ADD DUP6 DUP2 MSTORE PUSH1 0x20 ADD DUP5 DUP2 MSTORE PUSH1 0x20 ADD DUP4 DUP2 MSTORE PUSH1 0x20 ADD DUP3 DUP2 MSTORE PUSH1 0x20 ADD SWAP6 POP POP POP POP POP POP PUSH1 0x40 MLOAD DUP1 SWAP2 SUB SWAP1 RETURN JUMPDEST CALLVALUE DUP1 ISZERO PUSH2 0x15D JUMPI PUSH1 0x0 DUP1 REVERT JUMPDEST POP PUSH2 0x166 PUSH2 0x585 JUMP JUMPDEST PUSH1 0x40 MLOAD DUP1 DUP3 PUSH20 0xFFFFFFFFFFFFFFFFFFFFFFFFFFFFFFFFFFFFFFFF AND PUSH20 0xFFFFFFFFFFFFFFFFFFFFFFFFFFFFFFFFFFFFFFFF AND DUP2 MSTORE PUSH1 0x20 ADD SWAP2 POP POP PUSH1 0x40 MLOAD DUP1 SWAP2 SUB SWAP1 RETURN JUMPDEST CALLVALUE DUP1 ISZERO PUSH2 0x1B4 JUMPI PUSH1 0x0 DUP1 REVERT JUMPDEST POP PUSH2 0x1EB PUSH1 0x4 DUP1 CALLDATASIZE SUB PUSH1 0x40 DUP2 LT ISZERO PUSH2 0x1CB JUMPI PUSH1 0x0 DUP1 REVERT JUMPDEST DUP2 ADD SWAP1 DUP1 DUP1 CALLDATALOAD SWAP1 PUSH1 0x20 ADD SWAP1 SWAP3 SWAP2 SWAP1 DUP1 CALLDATALOAD SWAP1 PUSH1 0x20 ADD SWAP1 SWAP3 SWAP2 SWAP1 POP POP POP PUSH2 0x710 JUMP JUMPDEST PUSH1 0x40 MLOAD DUP1 DUP7 DUP2 MSTORE PUSH1 0x20 ADD DUP6 DUP2 MSTORE PUSH1 0x20 ADD DUP5 DUP2 MSTORE PUSH1 0x20 ADD DUP4 DUP2 MSTORE PUSH1 0x20 ADD DUP3 DUP2 MSTORE PUSH1 0x20 ADD SWAP6 POP POP POP POP POP POP PUSH1 0x40 MLOAD DUP1 SWAP2 SUB SWAP1 RETURN JUMPDEST PUSH2 0x273 PUSH1 0x4 DUP1 CALLDATASIZE SUB PUSH1 0x60 DUP2 LT ISZERO PUSH2 0x233 JUMPI PUSH1 0x0 DUP1 REVERT JUMPDEST DUP2 ADD SWAP1 DUP1 DUP1 CALLDATALOAD SWAP1 PUSH1 0x20 ADD SWAP1 SWAP3 SWAP2 SWAP1 DUP1 CALLDATALOAD SWAP1 PUSH1 0x20 ADD SWAP1 SWAP3 SWAP2 SWAP1 DUP1 CALLDATALOAD PUSH20 0xFFFFFFFFFFFFFFFFFFFFFFFFFFFFFFFFFFFFFFFF AND SWAP1 PUSH1 0x20 ADD SWAP1 SWAP3 SWAP2 SWAP1 POP POP POP PUSH2 0xB56 JUMP JUMPDEST STOP JUMPDEST PUSH1 0x0 DUP1 PUSH1 0x2 PUSH1 0x0 SWAP1 SLOAD SWAP1 PUSH2 0x100 EXP SWAP1 DIV PUSH20 0xFFFFFFFFFFFFFFFFFFFFFFFFFFFFFFFFFFFFFFFF AND PUSH20 0xFFFFFFFFFFFFFFFFFFFFFFFFFFFFFFFFFFFFFFFF AND PUSH4 0xB2DE2D40 PUSH1 0x40 MLOAD DUP2 PUSH4 0xFFFFFFFF AND PUSH1 0xE0 SHL DUP2 MSTORE PUSH1 0x4 ADD PUSH1 0x20 PUSH1 0x40 MLOAD DUP1 DUP4 SUB DUP2 DUP7 DUP1 EXTCODESIZE ISZERO DUP1 ISZERO PUSH2 0x2E0 JUMPI PUSH1 0x0 DUP1 REVERT JUMPDEST POP GAS STATICCALL ISZERO DUP1 ISZERO PUSH2 0x2F4 JUMPI RETURNDATASIZE PUSH1 0x0 DUP1 RETURNDATACOPY RETURNDATASIZE PUSH1 0x0 REVERT JUMPDEST POP POP POP POP PUSH1 0x40 MLOAD RETURNDATASIZE PUSH1 0x20 DUP2 LT ISZERO PUSH2 0x30A JUMPI PUSH1 0x0 DUP1 REVERT JUMPDEST DUP2 ADD SWAP1 DUP1 DUP1 MLOAD SWAP1 PUSH1 0x20 ADD SWAP1 SWAP3 SWAP2 SWAP1 POP POP POP SWAP1 POP DUP1 SWAP2 POP POP SWAP1 JUMP JUMPDEST PUSH1 0x3 PUSH1 0x0 SWAP1 SLOAD SWAP1 PUSH2 0x100 EXP SWAP1 DIV PUSH20 0xFFFFFFFFFFFFFFFFFFFFFFFFFFFFFFFFFFFFFFFF AND DUP2 JUMP JUMPDEST PUSH1 0x0 DUP1 PUSH1 0x0 DUP1 PUSH1 0x0 DUP1 PUSH1 0x5 SWAP1 POP PUSH1 0x0 DUP2 PUSH1 0x0 SHL SWAP1 POP PUSH1 0x0 DUP10 SWAP1 POP PUSH1 0x0 DUP10 SWAP1 POP PUSH1 0x0 PUSH1 0x1 SWAP1 POP PUSH1 0x0 PUSH1 0x2 DUP5 DUP7 DUP5 PUSH1 0x40 MLOAD PUSH1 0x20 ADD DUP1 DUP5 DUP2 MSTORE PUSH1 0x20 ADD DUP4 DUP2 MSTORE PUSH1 0x20 ADD DUP3 DUP2 MSTORE PUSH1 0x20 ADD SWAP4 POP POP POP POP PUSH1 0x40 MLOAD PUSH1 0x20 DUP2 DUP4 SUB SUB DUP2 MSTORE SWAP1 PUSH1 0x40 MSTORE PUSH1 0x40 MLOAD DUP1 DUP3 DUP1 MLOAD SWAP1 PUSH1 0x20 ADD SWAP1 DUP1 DUP4 DUP4 JUMPDEST PUSH1 0x20 DUP4 LT PUSH2 0x3D6 JUMPI DUP1 MLOAD DUP3 MSTORE PUSH1 0x20 DUP3 ADD SWAP2 POP PUSH1 0x20 DUP2 ADD SWAP1 POP PUSH1 0x20 DUP4 SUB SWAP3 POP PUSH2 0x3B3 JUMP JUMPDEST PUSH1 0x1 DUP4 PUSH1 0x20 SUB PUSH2 0x100 EXP SUB DUP1 NOT DUP3 MLOAD AND DUP2 DUP5 MLOAD AND DUP1 DUP3 OR DUP6 MSTORE POP POP POP POP POP POP SWAP1 POP ADD SWAP2 POP POP PUSH1 0x20 PUSH1 0x40 MLOAD DUP1 DUP4 SUB DUP2 DUP6 GAS STATICCALL ISZERO DUP1 ISZERO PUSH2 0x418 JUMPI RETURNDATASIZE PUSH1 0x0 DUP1 RETURNDATACOPY RETURNDATASIZE PUSH1 0x0 REVERT JUMPDEST POP POP POP PUSH1 0x40 MLOAD RETURNDATASIZE PUSH1 0x20 DUP2 LT ISZERO PUSH2 0x42D JUMPI PUSH1 0x0 DUP1 REVERT JUMPDEST DUP2 ADD SWAP1 DUP1 DUP1 MLOAD SWAP1 PUSH1 0x20 ADD SWAP1 SWAP3 SWAP2 SWAP1 POP POP POP SWAP1 POP PUSH1 0x0 DUP4 PUSH1 0x2 EXP DUP3 PUSH1 0x0 SHR MUL SWAP1 POP PUSH1 0x0 DUP2 PUSH1 0x0 SHL SWAP1 POP PUSH1 0x0 DUP7 PUSH1 0x0 SHR SWAP1 POP PUSH1 0x0 DUP5 PUSH1 0x0 SHR SWAP1 POP DUP1 DUP3 GT ISZERO PUSH2 0x55F JUMPI JUMPDEST DUP1 DUP3 GT ISZERO PUSH2 0x555 JUMPI PUSH1 0x2 DUP9 DUP11 DUP9 PUSH1 0x40 MLOAD PUSH1 0x20 ADD DUP1 DUP5 DUP2 MSTORE PUSH1 0x20 ADD DUP4 DUP2 MSTORE PUSH1 0x20 ADD DUP3 DUP2 MSTORE PUSH1 0x20 ADD SWAP4 POP POP POP POP PUSH1 0x40 MLOAD PUSH1 0x20 DUP2 DUP4 SUB SUB DUP2 MSTORE SWAP1 PUSH1 0x40 MSTORE PUSH1 0x40 MLOAD DUP1 DUP3 DUP1 MLOAD SWAP1 PUSH1 0x20 ADD SWAP1 DUP1 DUP4 DUP4 JUMPDEST PUSH1 0x20 DUP4 LT PUSH2 0x4DB JUMPI DUP1 MLOAD DUP3 MSTORE PUSH1 0x20 DUP3 ADD SWAP2 POP PUSH1 0x20 DUP2 ADD SWAP1 POP PUSH1 0x20 DUP4 SUB SWAP3 POP PUSH2 0x4B8 JUMP JUMPDEST PUSH1 0x1 DUP4 PUSH1 0x20 SUB PUSH2 0x100 EXP SUB DUP1 NOT DUP3 MLOAD AND DUP2 DUP5 MLOAD AND DUP1 DUP3 OR DUP6 MSTORE POP POP POP POP POP POP SWAP1 POP ADD SWAP2 POP POP PUSH1 0x20 PUSH1 0x40 MLOAD DUP1 DUP4 SUB DUP2 DUP6 GAS STATICCALL ISZERO DUP1 ISZERO PUSH2 0x51D JUMPI RETURNDATASIZE PUSH1 0x0 DUP1 RETURNDATACOPY RETURNDATASIZE PUSH1 0x0 REVERT JUMPDEST POP POP POP PUSH1 0x40 MLOAD RETURNDATASIZE PUSH1 0x20 DUP2 LT ISZERO PUSH2 0x532 JUMPI PUSH1 0x0 DUP1 REVERT JUMPDEST DUP2 ADD SWAP1 DUP1 DUP1 MLOAD SWAP1 PUSH1 0x20 ADD SWAP1 SWAP3 SWAP2 SWAP1 POP POP POP PUSH1 0x0 SHR SWAP1 POP DUP6 DUP1 PUSH1 0x1 ADD SWAP7 POP POP PUSH2 0x46E JUMP JUMPDEST DUP6 DUP1 PUSH1 0x1 SWAP1 SUB SWAP7 POP POP JUMPDEST DUP6 DUP7 PUSH1 0x0 SHL DUP4 DUP4 DUP11 SWAP15 POP SWAP15 POP SWAP15 POP SWAP15 POP SWAP15 POP POP POP POP POP POP POP POP POP POP POP SWAP3 SWAP6 POP SWAP3 SWAP6 SWAP1 SWAP4 POP JUMP JUMPDEST PUSH1 0x0 PUSH1 0x2 PUSH1 0x0 SWAP1 SLOAD SWAP1 PUSH2 0x100 EXP SWAP1 DIV PUSH20 0xFFFFFFFFFFFFFFFFFFFFFFFFFFFFFFFFFFFFFFFF AND PUSH20 0xFFFFFFFFFFFFFFFFFFFFFFFFFFFFFFFFFFFFFFFF AND PUSH4 0x2A9C1512 PUSH1 0x1 PUSH1 0x0 SWAP1 SLOAD SWAP1 PUSH2 0x100 EXP SWAP1 DIV PUSH20 0xFFFFFFFFFFFFFFFFFFFFFFFFFFFFFFFFFFFFFFFF AND PUSH1 0x40 MLOAD DUP3 PUSH4 0xFFFFFFFF AND PUSH1 0xE0 SHL DUP2 MSTORE PUSH1 0x4 ADD DUP1 DUP3 PUSH20 0xFFFFFFFFFFFFFFFFFFFFFFFFFFFFFFFFFFFFFFFF AND PUSH20 0xFFFFFFFFFFFFFFFFFFFFFFFFFFFFFFFFFFFFFFFF AND DUP2 MSTORE PUSH1 0x20 ADD SWAP2 POP POP PUSH1 0x0 PUSH1 0x40 MLOAD DUP1 DUP4 SUB DUP2 PUSH1 0x0 DUP8 DUP1 EXTCODESIZE ISZERO DUP1 ISZERO PUSH2 0x64A JUMPI PUSH1 0x0 DUP1 REVERT JUMPDEST POP GAS CALL ISZERO DUP1 ISZERO PUSH2 0x65E JUMPI RETURNDATASIZE PUSH1 0x0 DUP1 RETURNDATACOPY RETURNDATASIZE PUSH1 0x0 REVERT JUMPDEST POP POP POP POP PUSH1 0x0 PUSH1 0x2 PUSH1 0x0 SWAP1 SLOAD SWAP1 PUSH2 0x100 EXP SWAP1 DIV PUSH20 0xFFFFFFFFFFFFFFFFFFFFFFFFFFFFFFFFFFFFFFFF AND PUSH20 0xFFFFFFFFFFFFFFFFFFFFFFFFFFFFFFFFFFFFFFFF AND PUSH4 0x5E94A6A4 PUSH1 0x40 MLOAD DUP2 PUSH4 0xFFFFFFFF AND PUSH1 0xE0 SHL DUP2 MSTORE PUSH1 0x4 ADD PUSH1 0x20 PUSH1 0x40 MLOAD DUP1 DUP4 SUB DUP2 DUP7 DUP1 EXTCODESIZE ISZERO DUP1 ISZERO PUSH2 0x6CC JUMPI PUSH1 0x0 DUP1 REVERT JUMPDEST POP GAS STATICCALL ISZERO DUP1 ISZERO PUSH2 0x6E0 JUMPI RETURNDATASIZE PUSH1 0x0 DUP1 RETURNDATACOPY RETURNDATASIZE PUSH1 0x0 REVERT JUMPDEST POP POP POP POP PUSH1 0x40 MLOAD RETURNDATASIZE PUSH1 0x20 DUP2 LT ISZERO PUSH2 0x6F6 JUMPI PUSH1 0x0 DUP1 REVERT JUMPDEST DUP2 ADD SWAP1 DUP1 DUP1 MLOAD SWAP1 PUSH1 0x20 ADD SWAP1 SWAP3 SWAP2 SWAP1 POP POP POP SWAP1 POP DUP1 SWAP2 POP POP SWAP1 JUMP JUMPDEST PUSH1 0x0 DUP1 PUSH1 0x0 DUP1 PUSH1 0x0 DUP1 PUSH1 0x2 PUSH1 0x0 SWAP1 SLOAD SWAP1 PUSH2 0x100 EXP SWAP1 DIV PUSH20 0xFFFFFFFFFFFFFFFFFFFFFFFFFFFFFFFFFFFFFFFF AND PUSH20 0xFFFFFFFFFFFFFFFFFFFFFFFFFFFFFFFFFFFFFFFF AND PUSH4 0xB2DE2D40 PUSH1 0x40 MLOAD DUP2 PUSH4 0xFFFFFFFF AND PUSH1 0xE0 SHL DUP2 MSTORE PUSH1 0x4 ADD PUSH1 0x20 PUSH1 0x40 MLOAD DUP1 DUP4 SUB DUP2 DUP7 DUP1 EXTCODESIZE ISZERO DUP1 ISZERO PUSH2 0x781 JUMPI PUSH1 0x0 DUP1 REVERT JUMPDEST POP GAS STATICCALL ISZERO DUP1 ISZERO PUSH2 0x795 JUMPI RETURNDATASIZE PUSH1 0x0 DUP1 RETURNDATACOPY RETURNDATASIZE PUSH1 0x0 REVERT JUMPDEST POP POP POP POP PUSH1 0x40 MLOAD RETURNDATASIZE PUSH1 0x20 DUP2 LT ISZERO PUSH2 0x7AB JUMPI PUSH1 0x0 DUP1 REVERT JUMPDEST DUP2 ADD SWAP1 DUP1 DUP1 MLOAD SWAP1 PUSH1 0x20 ADD SWAP1 SWAP3 SWAP2 SWAP1 POP POP POP SWAP1 POP PUSH1 0x0 DUP2 PUSH1 0x0 SHL SWAP1 POP PUSH1 0x0 PUSH1 0x2 PUSH1 0x0 SWAP1 SLOAD SWAP1 PUSH2 0x100 EXP SWAP1 DIV PUSH20 0xFFFFFFFFFFFFFFFFFFFFFFFFFFFFFFFFFFFFFFFF AND PUSH20 0xFFFFFFFFFFFFFFFFFFFFFFFFFFFFFFFFFFFFFFFF AND PUSH4 0x35D45C1D DUP12 DUP12 PUSH1 0x40 MLOAD DUP4 PUSH4 0xFFFFFFFF AND PUSH1 0xE0 SHL DUP2 MSTORE PUSH1 0x4 ADD DUP1 DUP4 DUP2 MSTORE PUSH1 0x20 ADD DUP3 DUP2 MSTORE PUSH1 0x20 ADD SWAP3 POP POP POP PUSH1 0x20 PUSH1 0x40 MLOAD DUP1 DUP4 SUB DUP2 DUP7 DUP1 EXTCODESIZE ISZERO DUP1 ISZERO PUSH2 0x843 JUMPI PUSH1 0x0 DUP1 REVERT JUMPDEST POP GAS STATICCALL ISZERO DUP1 ISZERO PUSH2 0x857 JUMPI RETURNDATASIZE PUSH1 0x0 DUP1 RETURNDATACOPY RETURNDATASIZE PUSH1 0x0 REVERT JUMPDEST POP POP POP POP PUSH1 0x40 MLOAD RETURNDATASIZE PUSH1 0x20 DUP2 LT ISZERO PUSH2 0x86D JUMPI PUSH1 0x0 DUP1 REVERT JUMPDEST DUP2 ADD SWAP1 DUP1 DUP1 MLOAD SWAP1 PUSH1 0x20 ADD SWAP1 SWAP3 SWAP2 SWAP1 POP POP POP SWAP1 POP PUSH1 0x0 PUSH1 0x2 PUSH1 0x0 SWAP1 SLOAD SWAP1 PUSH2 0x100 EXP SWAP1 DIV PUSH20 0xFFFFFFFFFFFFFFFFFFFFFFFFFFFFFFFFFFFFFFFF AND PUSH20 0xFFFFFFFFFFFFFFFFFFFFFFFFFFFFFFFFFFFFFFFF AND PUSH4 0xE4DB6446 DUP13 DUP13 PUSH1 0x40 MLOAD DUP4 PUSH4 0xFFFFFFFF AND PUSH1 0xE0 SHL DUP2 MSTORE PUSH1 0x4 ADD DUP1 DUP4 DUP2 MSTORE PUSH1 0x20 ADD DUP3 DUP2 MSTORE PUSH1 0x20 ADD SWAP3 POP POP POP PUSH1 0x20 PUSH1 0x40 MLOAD DUP1 DUP4 SUB DUP2 DUP7 DUP1 EXTCODESIZE ISZERO DUP1 ISZERO PUSH2 0x8FD JUMPI PUSH1 0x0 DUP1 REVERT JUMPDEST POP GAS STATICCALL ISZERO DUP1 ISZERO PUSH2 0x911 JUMPI RETURNDATASIZE PUSH1 0x0 DUP1 RETURNDATACOPY RETURNDATASIZE PUSH1 0x0 REVERT JUMPDEST POP POP POP POP PUSH1 0x40 MLOAD RETURNDATASIZE PUSH1 0x20 DUP2 LT ISZERO PUSH2 0x927 JUMPI PUSH1 0x0 DUP1 REVERT JUMPDEST DUP2 ADD SWAP1 DUP1 DUP1 MLOAD SWAP1 PUSH1 0x20 ADD SWAP1 SWAP3 SWAP2 SWAP1 POP POP POP SWAP1 POP PUSH1 0x0 PUSH1 0x1 SWAP1 POP PUSH1 0x0 PUSH1 0x2 DUP5 DUP7 DUP5 PUSH1 0x40 MLOAD PUSH1 0x20 ADD DUP1 DUP5 DUP2 MSTORE PUSH1 0x20 ADD DUP4 DUP2 MSTORE PUSH1 0x20 ADD DUP3 DUP2 MSTORE PUSH1 0x20 ADD SWAP4 POP POP POP POP PUSH1 0x40 MLOAD PUSH1 0x20 DUP2 DUP4 SUB SUB DUP2 MSTORE SWAP1 PUSH1 0x40 MSTORE PUSH1 0x40 MLOAD DUP1 DUP3 DUP1 MLOAD SWAP1 PUSH1 0x20 ADD SWAP1 DUP1 DUP4 DUP4 JUMPDEST PUSH1 0x20 DUP4 LT PUSH2 0x9A7 JUMPI DUP1 MLOAD DUP3 MSTORE PUSH1 0x20 DUP3 ADD SWAP2 POP PUSH1 0x20 DUP2 ADD SWAP1 POP PUSH1 0x20 DUP4 SUB SWAP3 POP PUSH2 0x984 JUMP JUMPDEST PUSH1 0x1 DUP4 PUSH1 0x20 SUB PUSH2 0x100 EXP SUB DUP1 NOT DUP3 MLOAD AND DUP2 DUP5 MLOAD AND DUP1 DUP3 OR DUP6 MSTORE POP POP POP POP POP POP SWAP1 POP ADD SWAP2 POP POP PUSH1 0x20 PUSH1 0x40 MLOAD DUP1 DUP4 SUB DUP2 DUP6 GAS STATICCALL ISZERO DUP1 ISZERO PUSH2 0x9E9 JUMPI RETURNDATASIZE PUSH1 0x0 DUP1 RETURNDATACOPY RETURNDATASIZE PUSH1 0x0 REVERT JUMPDEST POP POP POP PUSH1 0x40 MLOAD RETURNDATASIZE PUSH1 0x20 DUP2 LT ISZERO PUSH2 0x9FE JUMPI PUSH1 0x0 DUP1 REVERT JUMPDEST DUP2 ADD SWAP1 DUP1 DUP1 MLOAD SWAP1 PUSH1 0x20 ADD SWAP1 SWAP3 SWAP2 SWAP1 POP POP POP SWAP1 POP PUSH1 0x0 DUP4 PUSH1 0x2 EXP DUP3 PUSH1 0x0 SHR MUL SWAP1 POP PUSH1 0x0 DUP2 PUSH1 0x0 SHL SWAP1 POP PUSH1 0x0 DUP7 PUSH1 0x0 SHR SWAP1 POP PUSH1 0x0 DUP5 PUSH1 0x0 SHR SWAP1 POP DUP1 DUP3 GT ISZERO PUSH2 0xB30 JUMPI JUMPDEST DUP1 DUP3 GT ISZERO PUSH2 0xB26 JUMPI PUSH1 0x2 DUP9 DUP11 DUP9 PUSH1 0x40 MLOAD PUSH1 0x20 ADD DUP1 DUP5 DUP2 MSTORE PUSH1 0x20 ADD DUP4 DUP2 MSTORE PUSH1 0x20 ADD DUP3 DUP2 MSTORE PUSH1 0x20 ADD SWAP4 POP POP POP POP PUSH1 0x40 MLOAD PUSH1 0x20 DUP2 DUP4 SUB SUB DUP2 MSTORE SWAP1 PUSH1 0x40 MSTORE PUSH1 0x40 MLOAD DUP1 DUP3 DUP1 MLOAD SWAP1 PUSH1 0x20 ADD SWAP1 DUP1 DUP4 DUP4 JUMPDEST PUSH1 0x20 DUP4 LT PUSH2 0xAAC JUMPI DUP1 MLOAD DUP3 MSTORE PUSH1 0x20 DUP3 ADD SWAP2 POP PUSH1 0x20 DUP2 ADD SWAP1 POP PUSH1 0x20 DUP4 SUB SWAP3 POP PUSH2 0xA89 JUMP JUMPDEST PUSH1 0x1 DUP4 PUSH1 0x20 SUB PUSH2 0x100 EXP SUB DUP1 NOT DUP3 MLOAD AND DUP2 DUP5 MLOAD AND DUP1 DUP3 OR DUP6 MSTORE POP POP POP POP POP POP SWAP1 POP ADD SWAP2 POP POP PUSH1 0x20 PUSH1 0x40 MLOAD DUP1 DUP4 SUB DUP2 DUP6 GAS STATICCALL ISZERO DUP1 ISZERO PUSH2 0xAEE JUMPI RETURNDATASIZE PUSH1 0x0 DUP1 RETURNDATACOPY RETURNDATASIZE PUSH1 0x0 REVERT JUMPDEST POP POP POP PUSH1 0x40 MLOAD RETURNDATASIZE PUSH1 0x20 DUP2 LT ISZERO PUSH2 0xB03 JUMPI PUSH1 0x0 DUP1 REVERT JUMPDEST DUP2 ADD SWAP1 DUP1 DUP1 MLOAD SWAP1 PUSH1 0x20 ADD SWAP1 SWAP3 SWAP2 SWAP1 POP POP POP PUSH1 0x0 SHR SWAP1 POP DUP6 DUP1 PUSH1 0x1 ADD SWAP7 POP POP PUSH2 0xA3F JUMP JUMPDEST DUP6 DUP1 PUSH1 0x1 SWAP1 SUB SWAP7 POP POP JUMPDEST DUP6 DUP7 PUSH1 0x0 SHL DUP4 DUP4 DUP11 SWAP15 POP SWAP15 POP SWAP15 POP SWAP15 POP SWAP15 POP POP POP POP POP POP POP POP POP POP POP SWAP3 SWAP6 POP SWAP3 SWAP6 SWAP1 SWAP4 POP JUMP JUMPDEST DUP1 PUSH20 0xFFFFFFFFFFFFFFFFFFFFFFFFFFFFFFFFFFFFFFFF AND PUSH2 0x8FC PUSH8 0x16345785D8A0000 SWAP1 DUP2 ISZERO MUL SWAP1 PUSH1 0x40 MLOAD PUSH1 0x0 PUSH1 0x40 MLOAD DUP1 DUP4 SUB DUP2 DUP6 DUP9 DUP9 CALL SWAP4 POP POP POP POP ISZERO DUP1 ISZERO PUSH2 0xBA4 JUMPI RETURNDATASIZE PUSH1 0x0 DUP1 RETURNDATACOPY RETURNDATASIZE PUSH1 0x0 REVERT JUMPDEST POP POP POP POP JUMP INVALID LOG2 PUSH6 0x627A7A723158 KECCAK256 LOG2 PC EXTCODECOPY STATICCALL RETURNDATACOPY 0xEA RETURNDATASIZE 0x23 EXTCODESIZE STATICCALL GAS 0x2E COINBASE 0xC2 0xE3 0xAB 0xD1 0xD8 0xD4 DELEGATECALL PUSH25 0xBC2120492F1062589A82E264736F6C63430005110032000000 "
				},
				"gasEstimates": {
					"creation": {
						"codeDepositCost": "607800",
						"executionCost": "infinite",
						"totalCost": "infinite"
					},
					"external": {
						"VM_Test_FindNonce(bytes32,uint256)": "infinite",
						"arrangeContract()": "infinite",
						"captureCell(int256,int256,address)": "infinite",
						"findNonce(int256,int256)": "infinite",
						"t_address()": "1053",
						"teamNumber()": "infinite"
					}
				},
				"methodIdentifiers": {
					"VM_Test_FindNonce(bytes32,uint256)": "30a6e63d",
					"arrangeContract()": "6881e114",
					"captureCell(int256,int256,address)": "cf2b96bf",
					"findNonce(int256,int256)": "7ba334ef",
					"t_address()": "0cd9a64d",
					"teamNumber()": "045bbbb2"
				}
			},
			"storageLayout": {
				"storage": [
					{
						"astId": 124,
						"contract": "Sprint1.sol:BaBoBa",
						"label": "powerContractAddres",
						"offset": 0,
						"slot": "0",
						"type": "t_address"
					},
					{
						"astId": 127,
						"contract": "Sprint1.sol:BaBoBa",
						"label": "myAdd",
						"offset": 0,
						"slot": "1",
						"type": "t_address"
					},
					{
						"astId": 132,
						"contract": "Sprint1.sol:BaBoBa",
						"label": "pc_interface",
						"offset": 0,
						"slot": "2",
						"type": "t_contract(PowerContractInterface)121"
					},
					{
						"astId": 170,
						"contract": "Sprint1.sol:BaBoBa",
						"label": "t_address",
						"offset": 0,
						"slot": "3",
						"type": "t_address"
					}
				],
				"types": {
					"t_address": {
						"encoding": "inplace",
						"label": "address",
						"numberOfBytes": "20"
					},
					"t_contract(PowerContractInterface)121": {
						"encoding": "inplace",
						"label": "contract PowerContractInterface",
						"numberOfBytes": "20"
					}
				}
			},
			"userdoc": {
				"methods": {}
			}
		}
	}
}