{
	"data": {
		"bytecode": {
			"linkReferences": {},
			"object": "608060405234801561001057600080fd5b50610308806100206000396000f3fe608060405234801561001057600080fd5b506004361061002b5760003560e01c806330a6e63d14610030575b600080fd5b6100666004803603604081101561004657600080fd5b810190808035906020019092919080359060200190929190505050610098565b604051808681526020018581526020018481526020018381526020018281526020019550505050505060405180910390f35b6000806000806000806005905060008160001b905060008990506000899050600060019050600060028486846040516020018084815260200183815260200182815260200193505050506040516020818303038152906040526040518082805190602001908083835b602083106101245780518252602082019150602081019050602083039250610101565b6001836020036101000a038019825116818451168082178552505050505050905001915050602060405180830381855afa158015610166573d6000803e3d6000fd5b5050506040513d602081101561017b57600080fd5b8101908080519060200190929190505050905060008360020a8260001c02905060008160001b905060008660001c905060008460001c9050808211156102ad575b808211156102a3576002888a886040516020018084815260200183815260200182815260200193505050506040516020818303038152906040526040518082805190602001908083835b602083106102295780518252602082019150602081019050602083039250610206565b6001836020036101000a038019825116818451168082178552505050505050905001915050602060405180830381855afa15801561026b573d6000803e3d6000fd5b5050506040513d602081101561028057600080fd5b810190808051906020019092919050505060001c905085806001019650506101bc565b8580600190039650505b858660001b83838a9e509e509e509e509e5050505050505050505050929550929590935056fea265627a7a7231582015cc77e3a1844ba01c6ef6b2965cf19fe4184a5ba45abb2e5c36cdebfb5a331264736f6c63430005110032",
			"opcodes": "PUSH1 0x80 PUSH1 0x40 MSTORE CALLVALUE DUP1 ISZERO PUSH2 0x10 JUMPI PUSH1 0x0 DUP1 REVERT JUMPDEST POP PUSH2 0x308 DUP1 PUSH2 0x20 PUSH1 0x0 CODECOPY PUSH1 0x0 RETURN INVALID PUSH1 0x80 PUSH1 0x40 MSTORE CALLVALUE DUP1 ISZERO PUSH2 0x10 JUMPI PUSH1 0x0 DUP1 REVERT JUMPDEST POP PUSH1 0x4 CALLDATASIZE LT PUSH2 0x2B JUMPI PUSH1 0x0 CALLDATALOAD PUSH1 0xE0 SHR DUP1 PUSH4 0x30A6E63D EQ PUSH2 0x30 JUMPI JUMPDEST PUSH1 0x0 DUP1 REVERT JUMPDEST PUSH2 0x66 PUSH1 0x4 DUP1 CALLDATASIZE SUB PUSH1 0x40 DUP2 LT ISZERO PUSH2 0x46 JUMPI PUSH1 0x0 DUP1 REVERT JUMPDEST DUP2 ADD SWAP1 DUP1 DUP1 CALLDATALOAD SWAP1 PUSH1 0x20 ADD SWAP1 SWAP3 SWAP2 SWAP1 DUP1 CALLDATALOAD SWAP1 PUSH1 0x20 ADD SWAP1 SWAP3 SWAP2 SWAP1 POP POP POP PUSH2 0x98 JUMP JUMPDEST PUSH1 0x40 MLOAD DUP1 DUP7 DUP2 MSTORE PUSH1 0x20 ADD DUP6 DUP2 MSTORE PUSH1 0x20 ADD DUP5 DUP2 MSTORE PUSH1 0x20 ADD DUP4 DUP2 MSTORE PUSH1 0x20 ADD DUP3 DUP2 MSTORE PUSH1 0x20 ADD SWAP6 POP POP POP POP POP POP PUSH1 0x40 MLOAD DUP1 SWAP2 SUB SWAP1 RETURN JUMPDEST PUSH1 0x0 DUP1 PUSH1 0x0 DUP1 PUSH1 0x0 DUP1 PUSH1 0x5 SWAP1 POP PUSH1 0x0 DUP2 PUSH1 0x0 SHL SWAP1 POP PUSH1 0x0 DUP10 SWAP1 POP PUSH1 0x0 DUP10 SWAP1 POP PUSH1 0x0 PUSH1 0x1 SWAP1 POP PUSH1 0x0 PUSH1 0x2 DUP5 DUP7 DUP5 PUSH1 0x40 MLOAD PUSH1 0x20 ADD DUP1 DUP5 DUP2 MSTORE PUSH1 0x20 ADD DUP4 DUP2 MSTORE PUSH1 0x20 ADD DUP3 DUP2 MSTORE PUSH1 0x20 ADD SWAP4 POP POP POP POP PUSH1 0x40 MLOAD PUSH1 0x20 DUP2 DUP4 SUB SUB DUP2 MSTORE SWAP1 PUSH1 0x40 MSTORE PUSH1 0x40 MLOAD DUP1 DUP3 DUP1 MLOAD SWAP1 PUSH1 0x20 ADD SWAP1 DUP1 DUP4 DUP4 JUMPDEST PUSH1 0x20 DUP4 LT PUSH2 0x124 JUMPI DUP1 MLOAD DUP3 MSTORE PUSH1 0x20 DUP3 ADD SWAP2 POP PUSH1 0x20 DUP2 ADD SWAP1 POP PUSH1 0x20 DUP4 SUB SWAP3 POP PUSH2 0x101 JUMP JUMPDEST PUSH1 0x1 DUP4 PUSH1 0x20 SUB PUSH2 0x100 EXP SUB DUP1 NOT DUP3 MLOAD AND DUP2 DUP5 MLOAD AND DUP1 DUP3 OR DUP6 MSTORE POP POP POP POP POP POP SWAP1 POP ADD SWAP2 POP POP PUSH1 0x20 PUSH1 0x40 MLOAD DUP1 DUP4 SUB DUP2 DUP6 GAS STATICCALL ISZERO DUP1 ISZERO PUSH2 0x166 JUMPI RETURNDATASIZE PUSH1 0x0 DUP1 RETURNDATACOPY RETURNDATASIZE PUSH1 0x0 REVERT JUMPDEST POP POP POP PUSH1 0x40 MLOAD RETURNDATASIZE PUSH1 0x20 DUP2 LT ISZERO PUSH2 0x17B JUMPI PUSH1 0x0 DUP1 REVERT JUMPDEST DUP2 ADD SWAP1 DUP1 DUP1 MLOAD SWAP1 PUSH1 0x20 ADD SWAP1 SWAP3 SWAP2 SWAP1 POP POP POP SWAP1 POP PUSH1 0x0 DUP4 PUSH1 0x2 EXP DUP3 PUSH1 0x0 SHR MUL SWAP1 POP PUSH1 0x0 DUP2 PUSH1 0x0 SHL SWAP1 POP PUSH1 0x0 DUP7 PUSH1 0x0 SHR SWAP1 POP PUSH1 0x0 DUP5 PUSH1 0x0 SHR SWAP1 POP DUP1 DUP3 GT ISZERO PUSH2 0x2AD JUMPI JUMPDEST DUP1 DUP3 GT ISZERO PUSH2 0x2A3 JUMPI PUSH1 0x2 DUP9 DUP11 DUP9 PUSH1 0x40 MLOAD PUSH1 0x20 ADD DUP1 DUP5 DUP2 MSTORE PUSH1 0x20 ADD DUP4 DUP2 MSTORE PUSH1 0x20 ADD DUP3 DUP2 MSTORE PUSH1 0x20 ADD SWAP4 POP POP POP POP PUSH1 0x40 MLOAD PUSH1 0x20 DUP2 DUP4 SUB SUB DUP2 MSTORE SWAP1 PUSH1 0x40 MSTORE PUSH1 0x40 MLOAD DUP1 DUP3 DUP1 MLOAD SWAP1 PUSH1 0x20 ADD SWAP1 DUP1 DUP4 DUP4 JUMPDEST PUSH1 0x20 DUP4 LT PUSH2 0x229 JUMPI DUP1 MLOAD DUP3 MSTORE PUSH1 0x20 DUP3 ADD SWAP2 POP PUSH1 0x20 DUP2 ADD SWAP1 POP PUSH1 0x20 DUP4 SUB SWAP3 POP PUSH2 0x206 JUMP JUMPDEST PUSH1 0x1 DUP4 PUSH1 0x20 SUB PUSH2 0x100 EXP SUB DUP1 NOT DUP3 MLOAD AND DUP2 DUP5 MLOAD AND DUP1 DUP3 OR DUP6 MSTORE POP POP POP POP POP POP SWAP1 POP ADD SWAP2 POP POP PUSH1 0x20 PUSH1 0x40 MLOAD DUP1 DUP4 SUB DUP2 DUP6 GAS STATICCALL ISZERO DUP1 ISZERO PUSH2 0x26B JUMPI RETURNDATASIZE PUSH1 0x0 DUP1 RETURNDATACOPY RETURNDATASIZE PUSH1 0x0 REVERT JUMPDEST POP POP POP PUSH1 0x40 MLOAD RETURNDATASIZE PUSH1 0x20 DUP2 LT ISZERO PUSH2 0x280 JUMPI PUSH1 0x0 DUP1 REVERT JUMPDEST DUP2 ADD SWAP1 DUP1 DUP1 MLOAD SWAP1 PUSH1 0x20 ADD SWAP1 SWAP3 SWAP2 SWAP1 POP POP POP PUSH1 0x0 SHR SWAP1 POP DUP6 DUP1 PUSH1 0x1 ADD SWAP7 POP POP PUSH2 0x1BC JUMP JUMPDEST DUP6 DUP1 PUSH1 0x1 SWAP1 SUB SWAP7 POP POP JUMPDEST DUP6 DUP7 PUSH1 0x0 SHL DUP4 DUP4 DUP11 SWAP15 POP SWAP15 POP SWAP15 POP SWAP15 POP SWAP15 POP POP POP POP POP POP POP POP POP POP POP SWAP3 SWAP6 POP SWAP3 SWAP6 SWAP1 SWAP4 POP JUMP INVALID LOG2 PUSH6 0x627A7A723158 KECCAK256 ISZERO 0xCC PUSH24 0xE3A1844BA01C6EF6B2965CF19FE4184A5BA45ABB2E5C36CD 0xEB 0xFB GAS CALLER SLT PUSH5 0x736F6C6343 STOP SDIV GT STOP ORIGIN "
		},
		"gasEstimates": {
			"creation": {
				"codeDepositCost": "155200",
				"executionCost": "202",
				"totalCost": "155402"
			},
			"external": {
				"VM_Test_FindNonce(bytes32,uint256)": "infinite"
			}
		},
		"methodIdentifiers": {
			"VM_Test_FindNonce(bytes32,uint256)": "30a6e63d"
		}
	},
	"abi": [
		{
			"constant": true,
			"inputs": [
				{
					"internalType": "bytes32",
					"name": "hashOfCell",
					"type": "bytes32"
				},
				{
					"internalType": "uint256",
					"name": "power",
					"type": "uint256"
				}
			],
			"name": "VM_Test_FindNonce",
			"outputs": [
				{
					"internalType": "uint256",
					"name": "",
					"type": "uint256"
				},
				{
					"internalType": "bytes32",
					"name": "",
					"type": "bytes32"
				},
				{
					"internalType": "uint256",
					"name": "",
					"type": "uint256"
				},
				{
					"internalType": "uint256",
					"name": "",
					"type": "uint256"
				},
				{
					"internalType": "uint256",
					"name": "",
					"type": "uint256"
				}
			],
			"payable": false,
			"stateMutability": "view",
			"type": "function"
		}
	]
}